{
  "contractName": "Inheritance",
  "abi": [
    {
      "constant": true,
      "inputs": [],
      "name": "Sablier",
      "outputs": [
        {
          "internalType": "address",
          "name": "",
          "type": "address"
        }
      ],
      "payable": false,
      "stateMutability": "view",
      "type": "function"
    },
    {
      "inputs": [
        {
          "internalType": "address",
          "name": "_Sablier",
          "type": "address"
        }
      ],
      "payable": false,
      "stateMutability": "nonpayable",
      "type": "constructor"
    },
    {
      "constant": false,
      "inputs": [
        {
          "internalType": "address",
          "name": "recipient",
          "type": "address"
        },
        {
          "internalType": "uint256",
          "name": "deposit",
          "type": "uint256"
        },
        {
          "internalType": "address",
          "name": "tokenAddress",
          "type": "address"
        },
        {
          "internalType": "uint256",
          "name": "startTime",
          "type": "uint256"
        },
        {
          "internalType": "uint256",
          "name": "stopTime",
          "type": "uint256"
        }
      ],
      "name": "doIt",
      "outputs": [
        {
          "internalType": "uint256",
          "name": "",
          "type": "uint256"
        }
      ],
      "payable": false,
      "stateMutability": "nonpayable",
      "type": "function"
    }
  ],
  "bytecode": "0x608060405234801561001057600080fd5b506040516105913803806105918339818101604052602081101561003357600080fd5b8101908080519060200190929190505050806000806101000a81548173ffffffffffffffffffffffffffffffffffffffff021916908373ffffffffffffffffffffffffffffffffffffffff160217905550506104fd806100946000396000f3fe608060405234801561001057600080fd5b50600436106100365760003560e01c806388c24c9c1461003b578063d1ecf20c146100d1575b600080fd5b6100bb600480360360a081101561005157600080fd5b81019080803573ffffffffffffffffffffffffffffffffffffffff16906020019092919080359060200190929190803573ffffffffffffffffffffffffffffffffffffffff169060200190929190803590602001909291908035906020019092919050505061011b565b6040518082815260200191505060405180910390f35b6100d96104a3565b604051808273ffffffffffffffffffffffffffffffffffffffff1673ffffffffffffffffffffffffffffffffffffffff16815260200191505060405180910390f35b60008373ffffffffffffffffffffffffffffffffffffffff166323b872dd3330886040518463ffffffff1660e01b8152600401808473ffffffffffffffffffffffffffffffffffffffff1673ffffffffffffffffffffffffffffffffffffffff1681526020018373ffffffffffffffffffffffffffffffffffffffff1673ffffffffffffffffffffffffffffffffffffffff1681526020018281526020019350505050602060405180830381600087803b1580156101d857600080fd5b505af11580156101ec573d6000803e3d6000fd5b505050506040513d602081101561020257600080fd5b8101908080519060200190929190505050610285576040517f08c379a00000000000000000000000000000000000000000000000000000000081526004018080602001828103825260168152602001807f746f6b656e207472616e73666572206661696c7572650000000000000000000081525060200191505060405180910390fd5b8373ffffffffffffffffffffffffffffffffffffffff1663095ea7b36000809054906101000a900473ffffffffffffffffffffffffffffffffffffffff16876040518363ffffffff1660e01b8152600401808373ffffffffffffffffffffffffffffffffffffffff1673ffffffffffffffffffffffffffffffffffffffff16815260200182815260200192505050602060405180830381600087803b15801561032d57600080fd5b505af1158015610341573d6000803e3d6000fd5b505050506040513d602081101561035757600080fd5b810190808051906020019092919050505061037157600080fd5b6000809054906101000a900473ffffffffffffffffffffffffffffffffffffffff1673ffffffffffffffffffffffffffffffffffffffff1663cc1b4bf687878787876040518663ffffffff1660e01b8152600401808673ffffffffffffffffffffffffffffffffffffffff1673ffffffffffffffffffffffffffffffffffffffff1681526020018581526020018473ffffffffffffffffffffffffffffffffffffffff1673ffffffffffffffffffffffffffffffffffffffff16815260200183815260200182815260200195505050505050602060405180830381600087803b15801561045d57600080fd5b505af1158015610471573d6000803e3d6000fd5b505050506040513d602081101561048757600080fd5b8101908080519060200190929190505050905095945050505050565b6000809054906101000a900473ffffffffffffffffffffffffffffffffffffffff168156fea265627a7a72315820731c243c2b816f21c9d804555d88cd16bdaa15c930ac12a61f7a26506a362b2064736f6c634300050b0032",
  "source": "pragma solidity 0.5.11;\n\nimport \"@openzeppelin/contracts/token/ERC20/IERC20.sol\";\nimport \"./interfaces/IERC1620.sol\";\n\n/**\n    Workflow:\n    1. User approves Inheritance contract to spend desired amount of tokens\n    2. User calls Inheritance doIt() function. This function does in one transaction:\n        a) transfer amount of tokens approved previously to itself\n        b) approve Sablier contract to spend tokens that are now owned by Inheritance contract\n        b) calls createStream() on Sablier contract. Sablier contract does:\n            a) create stream where Inheritance contract is the sender (msg.sender)\n            b) transfer previously approved tokens from Inheritance contract to itself\n\n     Result:\n       - A new stream for recipient is created, with the Inheritance contract as sender.\n       - Since the user is not the Sender, he can not cancel the stream anymore.\n       - No dangerous temporary accounts are involved\n*/\n\ncontract Inheritance {\n\n    address public Sablier;\n\n    constructor(address _Sablier) public {\n        Sablier = _Sablier;\n    }\n\n    function doIt(address recipient, uint256 deposit, address tokenAddress, uint256 startTime, uint256 stopTime)\n        public\n        returns (uint256)\n    {\n        // Note - Not doing any input validation here, as this is done anyway in the Sablier contract\n\n        // transfer tokens to me. Will fail if not approved.\n        require(IERC20(tokenAddress).transferFrom(msg.sender, address(this), deposit), \"token transfer failure\");\n\n        // approve Sablier to spend the tokens I just received\n        require(IERC20(tokenAddress).approve(Sablier, deposit));\n\n        // create stream on Sablier contract and return the streamID\n        return IERC1620(Sablier).createStream(recipient, deposit, tokenAddress, startTime, stopTime);\n    }\n}\n",
  "sourcePath": "/home/michael/WebstormProjects/web3Inheritance/contracts/Inheritance.sol",
  "compiler": {
    "name": "solc",
    "version": "0.5.11+commit.c082d0b4.Emscripten.clang"
  },
  "schemaVersion": "3.0.20",
  "updatedAt": "2020-01-10T12:07:26.283Z",
  "networkType": "ethereum",
  "devdoc": {
    "methods": {}
  },
  "userdoc": {
    "methods": {},
    "notice": "Workflow: 1. User approves Inheritance contract to spend desired amount of tokens 2. User calls Inheritance doIt() function. This function does in one transaction: a) transfer amount of tokens approved previously to itself b) approve Sablier contract to spend tokens that are now owned by Inheritance contract b) calls createStream() on Sablier contract. Sablier contract does: a) create stream where Inheritance contract is the sender (msg.sender) b) transfer previously approved tokens from Inheritance contract to itself Result: - A new stream for recipient is created, with the Inheritance contract as sender. - Since the user is not the Sender, he can not cancel the stream anymore. - No dangerous temporary accounts are involved"
  }
}