{
  "contractName": "Sablier",
  "abi": [
    {
      "constant": true,
      "inputs": [],
      "name": "nextStreamId",
      "outputs": [
        {
          "internalType": "uint256",
          "name": "",
          "type": "uint256"
        }
      ],
      "payable": false,
      "stateMutability": "view",
      "type": "function"
    },
    {
      "constant": false,
      "inputs": [],
      "name": "unpause",
      "outputs": [],
      "payable": false,
      "stateMutability": "nonpayable",
      "type": "function"
    },
    {
      "constant": true,
      "inputs": [
        {
          "internalType": "address",
          "name": "account",
          "type": "address"
        }
      ],
      "name": "isPauser",
      "outputs": [
        {
          "internalType": "bool",
          "name": "",
          "type": "bool"
        }
      ],
      "payable": false,
      "stateMutability": "view",
      "type": "function"
    },
    {
      "constant": true,
      "inputs": [],
      "name": "paused",
      "outputs": [
        {
          "internalType": "bool",
          "name": "",
          "type": "bool"
        }
      ],
      "payable": false,
      "stateMutability": "view",
      "type": "function"
    },
    {
      "constant": false,
      "inputs": [],
      "name": "initialize",
      "outputs": [],
      "payable": false,
      "stateMutability": "nonpayable",
      "type": "function"
    },
    {
      "constant": false,
      "inputs": [
        {
          "internalType": "address",
          "name": "account",
          "type": "address"
        }
      ],
      "name": "addPauser",
      "outputs": [],
      "payable": false,
      "stateMutability": "nonpayable",
      "type": "function"
    },
    {
      "constant": false,
      "inputs": [],
      "name": "pause",
      "outputs": [],
      "payable": false,
      "stateMutability": "nonpayable",
      "type": "function"
    },
    {
      "constant": true,
      "inputs": [],
      "name": "owner",
      "outputs": [
        {
          "internalType": "address",
          "name": "",
          "type": "address"
        }
      ],
      "payable": false,
      "stateMutability": "view",
      "type": "function"
    },
    {
      "constant": true,
      "inputs": [],
      "name": "isOwner",
      "outputs": [
        {
          "internalType": "bool",
          "name": "",
          "type": "bool"
        }
      ],
      "payable": false,
      "stateMutability": "view",
      "type": "function"
    },
    {
      "constant": false,
      "inputs": [
        {
          "internalType": "address",
          "name": "sender",
          "type": "address"
        }
      ],
      "name": "initialize",
      "outputs": [],
      "payable": false,
      "stateMutability": "nonpayable",
      "type": "function"
    },
    {
      "constant": true,
      "inputs": [],
      "name": "cTokenManager",
      "outputs": [
        {
          "internalType": "contract ICTokenManager",
          "name": "",
          "type": "address"
        }
      ],
      "payable": false,
      "stateMutability": "view",
      "type": "function"
    },
    {
      "constant": true,
      "inputs": [],
      "name": "fee",
      "outputs": [
        {
          "internalType": "uint256",
          "name": "mantissa",
          "type": "uint256"
        }
      ],
      "payable": false,
      "stateMutability": "view",
      "type": "function"
    },
    {
      "constant": false,
      "inputs": [
        {
          "internalType": "address",
          "name": "newOwner",
          "type": "address"
        }
      ],
      "name": "transferOwnership",
      "outputs": [],
      "payable": false,
      "stateMutability": "nonpayable",
      "type": "function"
    },
    {
      "inputs": [
        {
          "internalType": "address",
          "name": "cTokenManagerAddress",
          "type": "address"
        }
      ],
      "payable": false,
      "stateMutability": "nonpayable",
      "type": "constructor"
    },
    {
      "anonymous": false,
      "inputs": [
        {
          "indexed": true,
          "internalType": "uint256",
          "name": "streamId",
          "type": "uint256"
        },
        {
          "indexed": false,
          "internalType": "uint256",
          "name": "exchangeRate",
          "type": "uint256"
        },
        {
          "indexed": false,
          "internalType": "uint256",
          "name": "senderSharePercentage",
          "type": "uint256"
        },
        {
          "indexed": false,
          "internalType": "uint256",
          "name": "recipientSharePercentage",
          "type": "uint256"
        }
      ],
      "name": "CreateCompoundingStream",
      "type": "event"
    },
    {
      "anonymous": false,
      "inputs": [
        {
          "indexed": true,
          "internalType": "uint256",
          "name": "streamId",
          "type": "uint256"
        },
        {
          "indexed": false,
          "internalType": "uint256",
          "name": "senderInterest",
          "type": "uint256"
        },
        {
          "indexed": false,
          "internalType": "uint256",
          "name": "recipientInterest",
          "type": "uint256"
        },
        {
          "indexed": false,
          "internalType": "uint256",
          "name": "sablierInterest",
          "type": "uint256"
        }
      ],
      "name": "PayInterest",
      "type": "event"
    },
    {
      "anonymous": false,
      "inputs": [
        {
          "indexed": true,
          "internalType": "address",
          "name": "tokenAddress",
          "type": "address"
        },
        {
          "indexed": true,
          "internalType": "uint256",
          "name": "amount",
          "type": "uint256"
        }
      ],
      "name": "TakeEarnings",
      "type": "event"
    },
    {
      "anonymous": false,
      "inputs": [
        {
          "indexed": true,
          "internalType": "uint256",
          "name": "fee",
          "type": "uint256"
        }
      ],
      "name": "UpdateFee",
      "type": "event"
    },
    {
      "anonymous": false,
      "inputs": [
        {
          "indexed": false,
          "internalType": "address",
          "name": "account",
          "type": "address"
        }
      ],
      "name": "Paused",
      "type": "event"
    },
    {
      "anonymous": false,
      "inputs": [
        {
          "indexed": false,
          "internalType": "address",
          "name": "account",
          "type": "address"
        }
      ],
      "name": "Unpaused",
      "type": "event"
    },
    {
      "anonymous": false,
      "inputs": [
        {
          "indexed": true,
          "internalType": "address",
          "name": "account",
          "type": "address"
        }
      ],
      "name": "PauserAdded",
      "type": "event"
    },
    {
      "anonymous": false,
      "inputs": [
        {
          "indexed": true,
          "internalType": "address",
          "name": "account",
          "type": "address"
        }
      ],
      "name": "PauserRemoved",
      "type": "event"
    },
    {
      "anonymous": false,
      "inputs": [
        {
          "indexed": true,
          "internalType": "address",
          "name": "previousOwner",
          "type": "address"
        },
        {
          "indexed": true,
          "internalType": "address",
          "name": "newOwner",
          "type": "address"
        }
      ],
      "name": "OwnershipTransferred",
      "type": "event"
    },
    {
      "anonymous": false,
      "inputs": [
        {
          "indexed": true,
          "internalType": "uint256",
          "name": "streamId",
          "type": "uint256"
        },
        {
          "indexed": true,
          "internalType": "address",
          "name": "sender",
          "type": "address"
        },
        {
          "indexed": true,
          "internalType": "address",
          "name": "recipient",
          "type": "address"
        },
        {
          "indexed": false,
          "internalType": "uint256",
          "name": "deposit",
          "type": "uint256"
        },
        {
          "indexed": false,
          "internalType": "address",
          "name": "tokenAddress",
          "type": "address"
        },
        {
          "indexed": false,
          "internalType": "uint256",
          "name": "startTime",
          "type": "uint256"
        },
        {
          "indexed": false,
          "internalType": "uint256",
          "name": "stopTime",
          "type": "uint256"
        }
      ],
      "name": "CreateStream",
      "type": "event"
    },
    {
      "anonymous": false,
      "inputs": [
        {
          "indexed": true,
          "internalType": "uint256",
          "name": "streamId",
          "type": "uint256"
        },
        {
          "indexed": true,
          "internalType": "address",
          "name": "recipient",
          "type": "address"
        },
        {
          "indexed": false,
          "internalType": "uint256",
          "name": "amount",
          "type": "uint256"
        }
      ],
      "name": "WithdrawFromStream",
      "type": "event"
    },
    {
      "anonymous": false,
      "inputs": [
        {
          "indexed": true,
          "internalType": "uint256",
          "name": "streamId",
          "type": "uint256"
        },
        {
          "indexed": true,
          "internalType": "address",
          "name": "sender",
          "type": "address"
        },
        {
          "indexed": true,
          "internalType": "address",
          "name": "recipient",
          "type": "address"
        },
        {
          "indexed": false,
          "internalType": "uint256",
          "name": "senderBalance",
          "type": "uint256"
        },
        {
          "indexed": false,
          "internalType": "uint256",
          "name": "recipientBalance",
          "type": "uint256"
        }
      ],
      "name": "CancelStream",
      "type": "event"
    },
    {
      "constant": false,
      "inputs": [
        {
          "internalType": "uint256",
          "name": "feePercentage",
          "type": "uint256"
        }
      ],
      "name": "updateFee",
      "outputs": [],
      "payable": false,
      "stateMutability": "nonpayable",
      "type": "function"
    },
    {
      "constant": false,
      "inputs": [
        {
          "internalType": "address",
          "name": "tokenAddress",
          "type": "address"
        },
        {
          "internalType": "uint256",
          "name": "amount",
          "type": "uint256"
        }
      ],
      "name": "takeEarnings",
      "outputs": [],
      "payable": false,
      "stateMutability": "nonpayable",
      "type": "function"
    },
    {
      "constant": true,
      "inputs": [
        {
          "internalType": "uint256",
          "name": "streamId",
          "type": "uint256"
        }
      ],
      "name": "getStream",
      "outputs": [
        {
          "internalType": "address",
          "name": "sender",
          "type": "address"
        },
        {
          "internalType": "address",
          "name": "recipient",
          "type": "address"
        },
        {
          "internalType": "uint256",
          "name": "deposit",
          "type": "uint256"
        },
        {
          "internalType": "address",
          "name": "tokenAddress",
          "type": "address"
        },
        {
          "internalType": "uint256",
          "name": "startTime",
          "type": "uint256"
        },
        {
          "internalType": "uint256",
          "name": "stopTime",
          "type": "uint256"
        },
        {
          "internalType": "uint256",
          "name": "remainingBalance",
          "type": "uint256"
        },
        {
          "internalType": "uint256",
          "name": "ratePerSecond",
          "type": "uint256"
        }
      ],
      "payable": false,
      "stateMutability": "view",
      "type": "function"
    },
    {
      "constant": true,
      "inputs": [
        {
          "internalType": "uint256",
          "name": "streamId",
          "type": "uint256"
        }
      ],
      "name": "deltaOf",
      "outputs": [
        {
          "internalType": "uint256",
          "name": "delta",
          "type": "uint256"
        }
      ],
      "payable": false,
      "stateMutability": "view",
      "type": "function"
    },
    {
      "constant": true,
      "inputs": [
        {
          "internalType": "uint256",
          "name": "streamId",
          "type": "uint256"
        },
        {
          "internalType": "address",
          "name": "who",
          "type": "address"
        }
      ],
      "name": "balanceOf",
      "outputs": [
        {
          "internalType": "uint256",
          "name": "balance",
          "type": "uint256"
        }
      ],
      "payable": false,
      "stateMutability": "view",
      "type": "function"
    },
    {
      "constant": true,
      "inputs": [
        {
          "internalType": "uint256",
          "name": "streamId",
          "type": "uint256"
        }
      ],
      "name": "isCompoundingStream",
      "outputs": [
        {
          "internalType": "bool",
          "name": "",
          "type": "bool"
        }
      ],
      "payable": false,
      "stateMutability": "view",
      "type": "function"
    },
    {
      "constant": true,
      "inputs": [
        {
          "internalType": "uint256",
          "name": "streamId",
          "type": "uint256"
        }
      ],
      "name": "getCompoundingStream",
      "outputs": [
        {
          "internalType": "address",
          "name": "sender",
          "type": "address"
        },
        {
          "internalType": "address",
          "name": "recipient",
          "type": "address"
        },
        {
          "internalType": "uint256",
          "name": "deposit",
          "type": "uint256"
        },
        {
          "internalType": "address",
          "name": "tokenAddress",
          "type": "address"
        },
        {
          "internalType": "uint256",
          "name": "startTime",
          "type": "uint256"
        },
        {
          "internalType": "uint256",
          "name": "stopTime",
          "type": "uint256"
        },
        {
          "internalType": "uint256",
          "name": "remainingBalance",
          "type": "uint256"
        },
        {
          "internalType": "uint256",
          "name": "ratePerSecond",
          "type": "uint256"
        },
        {
          "internalType": "uint256",
          "name": "exchangeRateInitial",
          "type": "uint256"
        },
        {
          "internalType": "uint256",
          "name": "senderSharePercentage",
          "type": "uint256"
        },
        {
          "internalType": "uint256",
          "name": "recipientSharePercentage",
          "type": "uint256"
        }
      ],
      "payable": false,
      "stateMutability": "view",
      "type": "function"
    },
    {
      "constant": false,
      "inputs": [
        {
          "internalType": "uint256",
          "name": "streamId",
          "type": "uint256"
        },
        {
          "internalType": "uint256",
          "name": "amount",
          "type": "uint256"
        }
      ],
      "name": "interestOf",
      "outputs": [
        {
          "internalType": "uint256",
          "name": "senderInterest",
          "type": "uint256"
        },
        {
          "internalType": "uint256",
          "name": "recipientInterest",
          "type": "uint256"
        },
        {
          "internalType": "uint256",
          "name": "sablierInterest",
          "type": "uint256"
        }
      ],
      "payable": false,
      "stateMutability": "nonpayable",
      "type": "function"
    },
    {
      "constant": true,
      "inputs": [
        {
          "internalType": "address",
          "name": "tokenAddress",
          "type": "address"
        }
      ],
      "name": "getEarnings",
      "outputs": [
        {
          "internalType": "uint256",
          "name": "",
          "type": "uint256"
        }
      ],
      "payable": false,
      "stateMutability": "view",
      "type": "function"
    },
    {
      "constant": false,
      "inputs": [
        {
          "internalType": "address",
          "name": "recipient",
          "type": "address"
        },
        {
          "internalType": "uint256",
          "name": "deposit",
          "type": "uint256"
        },
        {
          "internalType": "address",
          "name": "tokenAddress",
          "type": "address"
        },
        {
          "internalType": "uint256",
          "name": "startTime",
          "type": "uint256"
        },
        {
          "internalType": "uint256",
          "name": "stopTime",
          "type": "uint256"
        }
      ],
      "name": "createStream",
      "outputs": [
        {
          "internalType": "uint256",
          "name": "",
          "type": "uint256"
        }
      ],
      "payable": false,
      "stateMutability": "nonpayable",
      "type": "function"
    },
    {
      "constant": false,
      "inputs": [
        {
          "internalType": "address",
          "name": "recipient",
          "type": "address"
        },
        {
          "internalType": "uint256",
          "name": "deposit",
          "type": "uint256"
        },
        {
          "internalType": "address",
          "name": "tokenAddress",
          "type": "address"
        },
        {
          "internalType": "uint256",
          "name": "startTime",
          "type": "uint256"
        },
        {
          "internalType": "uint256",
          "name": "stopTime",
          "type": "uint256"
        },
        {
          "internalType": "uint256",
          "name": "senderSharePercentage",
          "type": "uint256"
        },
        {
          "internalType": "uint256",
          "name": "recipientSharePercentage",
          "type": "uint256"
        }
      ],
      "name": "createCompoundingStream",
      "outputs": [
        {
          "internalType": "uint256",
          "name": "",
          "type": "uint256"
        }
      ],
      "payable": false,
      "stateMutability": "nonpayable",
      "type": "function"
    },
    {
      "constant": false,
      "inputs": [
        {
          "internalType": "uint256",
          "name": "streamId",
          "type": "uint256"
        },
        {
          "internalType": "uint256",
          "name": "amount",
          "type": "uint256"
        }
      ],
      "name": "withdrawFromStream",
      "outputs": [
        {
          "internalType": "bool",
          "name": "",
          "type": "bool"
        }
      ],
      "payable": false,
      "stateMutability": "nonpayable",
      "type": "function"
    },
    {
      "constant": false,
      "inputs": [
        {
          "internalType": "uint256",
          "name": "streamId",
          "type": "uint256"
        }
      ],
      "name": "cancelStream",
      "outputs": [
        {
          "internalType": "bool",
          "name": "",
          "type": "bool"
        }
      ],
      "payable": false,
      "stateMutability": "nonpayable",
      "type": "function"
    }
  ],
  "bytecode": "0x60806040523480156200001157600080fd5b5060405162004d7a38038062004d7a833981810160405260208110156200003757600080fd5b50516001600160a01b0381166200009a576040517f08c379a000000000000000000000000000000000000000000000000000000000815260040180806020018281038252602a81526020018062004d50602a913960400191505060405180910390fd5b620000b033620000f160201b620043e11760201c565b620000c6336200020e60201b6200239f1760201c565b60ce80546001600160a01b0319166001600160a01b0392909216919091179055600160d155620004ff565b600054610100900460ff1680620001165750620001166001600160e01b03620002fb16565b8062000125575060005460ff16155b6200017c576040517f08c379a000000000000000000000000000000000000000000000000000000000815260040180806020018281038252602e81526020018062004d22602e913960400191505060405180910390fd5b600054610100900460ff16158015620001a8576000805460ff1961ff0019909116610100171660011790555b603380546001600160a01b0319166001600160a01b0384811691909117918290556040519116906000907f8be0079c531659141344cd1fd0a4f28419497f9722a3daafe3b4186f6b6457e0908290a380156200020a576000805461ff00191690555b5050565b600054610100900460ff1680620002335750620002336001600160e01b03620002fb16565b8062000242575060005460ff16155b62000299576040517f08c379a000000000000000000000000000000000000000000000000000000000815260040180806020018281038252602e81526020018062004d22602e913960400191505060405180910390fd5b600054610100900460ff16158015620002c5576000805460ff1961ff0019909116610100171660011790555b620002db826200030160201b62003faf1760201c565b6099805460ff1916905580156200020a576000805461ff00191690555050565b303b1590565b600054610100900460ff1680620003265750620003266001600160e01b03620002fb16565b8062000335575060005460ff16155b6200038c576040517f08c379a000000000000000000000000000000000000000000000000000000000815260040180806020018281038252602e81526020018062004d22602e913960400191505060405180910390fd5b600054610100900460ff16158015620003b8576000805460ff1961ff0019909116610100171660011790555b620003cc826001600160e01b03620003fb16565b620003e557620003e5826001600160e01b036200041e16565b80156200020a576000805461ff00191690555050565b6000620004188260666200047060201b62002b711790919060201c565b92915050565b62000439816066620004a660201b620041011790919060201c565b6040516001600160a01b038216907f6719d08c1888103bea251a4ed56406bd0c3e69723c8a1686e017e7bbe159b6f890600090a250565b60006001600160a01b0382166200048657600080fd5b506001600160a01b03166000908152602091909152604090205460ff1690565b6001600160a01b038116620004ba57600080fd5b620004cf82826001600160e01b036200047016565b15620004da57600080fd5b6001600160a01b0316600090815260209190915260409020805460ff19166001179055565b614813806200050f6000396000f3fe608060405234801561001057600080fd5b506004361061018e5760003560e01c8063894e9a0d116100de578063a82ccd4d11610097578063cc1b4bf611610071578063cc1b4bf614610518578063d2cba55c14610558578063ddca3f4314610560578063f2fde38b146105685761018e565b8063a82ccd4d146104a9578063c1eb9ee0146104c6578063c4d66de8146104f25761018e565b8063894e9a0d146103925780638c9a3252146104025780638da5cb5b146104435780638f32d59b146104675780639012c4a81461046f578063a734d51b1461048c5761018e565b80635c975abb1161014b5780638129fc1c116101255780638129fc1c146103105780638195aeaa1461031857806382dc1ec4146103645780638456cb591461038a5761018e565b80635c975abb146102c85780636db9241b146102d05780637a9b2c6c146102ed5761018e565b8063131b9c04146101935780631e99d569146101cb5780632b8a119d146101d35780633656eec2146102585780633f4ba83a1461028457806346fbf68e1461028e575b600080fd5b6101b9600480360360208110156101a957600080fd5b50356001600160a01b031661058e565b60408051918252519081900360200190f35b6101b961066e565b6101f0600480360360208110156101e957600080fd5b5035610674565b604080516001600160a01b039c8d1681529a8c1660208c01528a810199909952969099166060890152608088019490945260a087019290925260c086015260e08501526101008401526101208301939093526101408201929092529051908190036101600190f35b6101b96004803603604081101561026e57600080fd5b50803590602001356001600160a01b03166108a1565b61028c610b7e565b005b6102b4600480360360208110156102a457600080fd5b50356001600160a01b0316610c67565b604080519115158252519081900360200190f35b6102b4610c80565b6102b4600480360360208110156102e657600080fd5b5035610c89565b6102b46004803603604081101561030357600080fd5b5080359060200135610dbc565b61028c611063565b6101b9600480360360e081101561032e57600080fd5b506001600160a01b0381358116916020810135916040820135169060608101359060808101359060a08101359060c0013561110a565b61028c6004803603602081101561037a57600080fd5b50356001600160a01b03166114ec565b61028c61153b565b6103af600480360360208110156103a857600080fd5b5035611602565b604080516001600160a01b03998a168152978916602089015287810196909652939096166060860152608085019190915260a084015260c083019390935260e08201929092529051908190036101000190f35b6104256004803603604081101561041857600080fd5b50803590602001356116ce565b60408051938452602084019290925282820152519081900360600190f35b61044b611e1d565b604080516001600160a01b039092168252519081900360200190f35b6102b4611e2c565b61028c6004803603602081101561048557600080fd5b5035611e52565b6102b4600480360360208110156104a257600080fd5b5035611f4e565b6101b9600480360360208110156104bf57600080fd5b5035611f66565b61028c600480360360408110156104dc57600080fd5b506001600160a01b038135169060200135612098565b61028c6004803603602081101561050857600080fd5b50356001600160a01b031661239f565b6101b9600480360360a081101561052e57600080fd5b506001600160a01b0381358116916020810135916040820135169060608101359060800135612455565b61044b612ad9565b6101b9612ae8565b61028c6004803603602081101561057e57600080fd5b50356001600160a01b0316612aee565b60ce5460408051632f52e59560e01b81526001600160a01b03848116600483015291516000939290921691632f52e59591602480820192602092909190829003018186803b1580156105df57600080fd5b505afa1580156105f3573d6000803e3d6000fd5b505050506040513d602081101561060957600080fd5b5051610652576040805162461bcd60e51b81526020600482015260136024820152723a37b5b2b71034b9903737ba1031aa37b5b2b760691b604482015290519081900360640190fd5b506001600160a01b0316600090815260cf602052604090205490565b60d15481565b60008060008060008060008060008060008b60d2600082815260200190815260200160002060070160149054906101000a900460ff166106e9576040805162461bcd60e51b8152602060048201526015602482015260008051602061456e833981519152604482015290519081900360640190fd5b60008d815260cd60205260409020600301548d9060ff1661073b5760405162461bcd60e51b81526004018080602001828103825260218152602001806144d36021913960400191505060405180910390fd5b60d260008f815260200190815260200160002060060160009054906101000a90046001600160a01b03169c5060d260008f815260200190815260200160002060050160009054906101000a90046001600160a01b03169b5060d260008f8152602001908152602001600020600001549a5060d260008f815260200190815260200160002060070160009054906101000a90046001600160a01b0316995060d260008f815260200190815260200160002060030154985060d260008f815260200190815260200160002060040154975060d260008f815260200190815260200160002060020154965060d260008f815260200190815260200160002060010154955060cd60008f815260200190815260200160002060000160000154945060cd60008f815260200190815260200160002060010160000154935060cd60008f8152602001908152602001600020600201600001549250505091939597999b90929496989a50565b600082815260d260205260408120600701548390600160a01b900460ff166108fe576040805162461bcd60e51b8152602060048201526015602482015260008051602061456e833981519152604482015290519081900360640190fd5b6109066141fd565b50600084815260d2602090815260409182902082516101208101845281548152600182015492810192909252600281015492820192909252600382015460608201526004820154608082015260058201546001600160a01b0390811660a08301526006830154811660c083015260079092015491821660e0820152600160a01b90910460ff16151561010082015261099c614266565b60006109a787611f66565b90506109b7818460200151612b08565b60208401819052838260038111156109cb57fe5b60038111156109d657fe5b90525060009050825160038111156109ea57fe5b14610a265760405162461bcd60e51b81526004018080602001828103825260238152602001806147856023913960400191505060405180910390fd5b604083015183511115610acb57610a4583600001518460400151612b4a565b6040840181905283826003811115610a5957fe5b6003811115610a6457fe5b9052506000905082516003811115610a7857fe5b14610a7f57fe5b610a9182602001518360400151612b4a565b6020840181905283826003811115610aa557fe5b6003811115610ab057fe5b9052506000905082516003811115610ac457fe5b14610acb57fe5b8260a001516001600160a01b0316866001600160a01b03161415610af75750602001519250610b779050565b8260c001516001600160a01b0316866001600160a01b03161415610b6f57610b2783604001518360200151612b4a565b6060840181905283826003811115610b3b57fe5b6003811115610b4657fe5b9052506000905082516003811115610b5a57fe5b14610b6157fe5b50606001519250610b779050565b600094505050505b5092915050565b610b8e610b89612b6d565b610c67565b610bc95760405162461bcd60e51b81526004018080602001828103825260308152602001806145176030913960400191505060405180910390fd5b60995460ff16610c17576040805162461bcd60e51b815260206004820152601460248201527314185d5cd8589b194e881b9bdd081c185d5cd95960621b604482015290519081900360640190fd5b6099805460ff191690557f5db9ee0a495bf2e6ff9c91a7834c1ba4fdd244a5e8aa4e537bd38aeae4b073aa610c4a612b6d565b604080516001600160a01b039092168252519081900360200190a1565b6000610c7a60668363ffffffff612b7116565b92915050565b60995460ff1690565b609a805460010190819055600082815260d260205260408120600701549091908390600160a01b900460ff16610cf4576040805162461bcd60e51b8152602060048201526015602482015260008051602061456e833981519152604482015290519081900360640190fd5b600084815260d2602052604090206006015484906001600160a01b0316331480610d375750600081815260d260205260409020600501546001600160a01b031633145b610d725760405162461bcd60e51b81526004018080602001828103825260378152602001806147a86037913960400191505060405180910390fd5b600085815260cd602052604090206003015460ff16610d9957610d9485612ba6565b610da2565b610da285612ef4565b600193505050609a548114610db657600080fd5b50919050565b60995460009060ff1615610e0a576040805162461bcd60e51b815260206004820152601060248201526f14185d5cd8589b194e881c185d5cd95960821b604482015290519081900360640190fd5b609a805460010190819055600084815260d260205260409020600701548490600160a01b900460ff16610e72576040805162461bcd60e51b8152602060048201526015602482015260008051602061456e833981519152604482015290519081900360640190fd5b600085815260d2602052604090206006015485906001600160a01b0316331480610eb55750600081815260d260205260409020600501546001600160a01b031633145b610ef05760405162461bcd60e51b81526004018080602001828103825260378152602001806147a86037913960400191505060405180910390fd5b60008511610f36576040805162461bcd60e51b815260206004820152600e60248201526d616d6f756e74206973207a65726f60901b604482015290519081900360640190fd5b610f3e6141fd565b50600086815260d26020908152604080832081516101208101835281548152600182015493810193909352600281015491830191909152600381015460608301526004810154608083015260058101546001600160a01b0390811660a084018190526006830154821660c085015260079092015490811660e0840152600160a01b900460ff161515610100830152909190610fda9089906108a1565b90508681101561101b5760405162461bcd60e51b815260040180806020018281038252602481526020018061458e6024913960400191505060405180910390fd5b600088815260cd602052604090206003015460ff166110435761103e8888613504565b61104d565b61104d8888613797565b6001955050505050609a548114610b7757600080fd5b600054610100900460ff168061107c575061107c613d7e565b8061108a575060005460ff16155b6110c55760405162461bcd60e51b815260040180806020018281038252602e815260200180614712602e913960400191505060405180910390fd5b600054610100900460ff161580156110f0576000805460ff1961ff0019909116610100171660011790555b6001609a558015611107576000805461ff00191690555b50565b60995460009060ff1615611158576040805162461bcd60e51b815260206004820152601060248201526f14185d5cd8589b194e881c185d5cd95960821b604482015290519081900360640190fd5b60ce5460408051632f52e59560e01b81526001600160a01b03898116600483015291519190921691632f52e595916024808301926020929190829003018186803b1580156111a557600080fd5b505afa1580156111b9573d6000803e3d6000fd5b505050506040513d60208110156111cf57600080fd5b505161121e576040805162461bcd60e51b815260206004820152601960248201527818d51bdad95b881a5cc81b9bdd081dda1a5d195b1a5cdd1959603a1b604482015290519081900360640190fd5b61122661428f565b6112308484613d84565b602083018190528282600381111561124457fe5b600381111561124f57fe5b905250600090508151600381111561126357fe5b146112b5576040805162461bcd60e51b815260206004820152601b60248201527f73686172652073756d2063616c63756c6174696f6e206572726f720000000000604482015290519081900360640190fd5b806020015160641461130e576040805162461bcd60e51b815260206004820152601b60248201527f73686172657320646f206e6f742073756d20757020746f203130300000000000604482015290519081900360640190fd5b600061131d8a8a8a8a8a612455565b905061133085662386f26fc10000612b08565b606084018190528382600381111561134457fe5b600381111561134f57fe5b905250600090508251600381111561136357fe5b1461136a57fe5b61137b84662386f26fc10000612b08565b608084018190528382600381111561138f57fe5b600381111561139a57fe5b90525060009050825160038111156113ae57fe5b146113b557fe5b6000886001600160a01b031663bd6d894d6040518163ffffffff1660e01b8152600401602060405180830381600087803b1580156113f257600080fd5b505af1158015611406573d6000803e3d6000fd5b505050506040513d602081101561141c57600080fd5b50516040805160a08101825260808082018481528252825160208082018552606089810151835281850192835285518083018752938a01518452848601938452600181860181815260008b815260cd8552889020965151875593515190860155925151600285015590516003909301805460ff19169315159390931790925582518481529182018a9052818301899052915192935084927fa9bbfc8562a8e1e6b889a428f128c90ed60c6204c37e4fb4354a202b4db59204929181900390910190a2509998505050505050505050565b6114f7610b89612b6d565b6115325760405162461bcd60e51b81526004018080602001828103825260308152602001806145176030913960400191505060405180910390fd5b61110781613daa565b611546610b89612b6d565b6115815760405162461bcd60e51b81526004018080602001828103825260308152602001806145176030913960400191505060405180910390fd5b60995460ff16156115cc576040805162461bcd60e51b815260206004820152601060248201526f14185d5cd8589b194e881c185d5cd95960821b604482015290519081900360640190fd5b6099805460ff191660011790557f62e78cea01bee320cd4e420270b5ea74000d11b0c9f74754ebdbfc544b05a258610c4a612b6d565b6000806000806000806000808860d2600082815260200190815260200160002060070160149054906101000a900460ff16611672576040805162461bcd60e51b8152602060048201526015602482015260008051602061456e833981519152604482015290519081900360640190fd5b5050506000968752505060d26020525050604090922060068101546005820154825460078401546003850154600486015460028701546001909701546001600160a01b039687169a958716995093975091909416949092909190565b600082815260d26020526040812060070154819081908590600160a01b900460ff1661172f576040805162461bcd60e51b8152602060048201526015602482015260008051602061456e833981519152604482015290519081900360640190fd5b600086815260cd602052604090206003015460ff166117575760009350839250829150611e15565b61175f6141fd565b50600086815260d2602090815260409182902082516101208101845281548152600182015492810192909252600281015492820192909252600382015460608201526004820154608082015260058201546001600160a01b0390811660a08301526006830154811660c083015260079092015491821660e0820152600160a01b90910460ff1615156101008201526117f56142bf565b50600087815260cd6020908152604091829020825160a08101845281546080820190815281528351808401855260018301548152818401528351928301845260028201548352928301919091526003015460ff16151560608201526118586142f9565b611860614382565b60405180602001604052808560e001516001600160a01b031663bd6d894d6040518163ffffffff1660e01b8152600401602060405180830381600087803b1580156118aa57600080fd5b505af11580156118be573d6000803e3d6000fd5b505050506040513d60208110156118d457600080fd5b505190528351518151919250106118f9575060009650869550859450611e1592505050565b611907818460000151613df2565b602084018190528382600381111561191b57fe5b600381111561192657fe5b905250600090508251600381111561193a57fe5b1461194157fe5b61194f82602001518a613e2c565b604084018190528382600381111561196357fe5b600381111561196e57fe5b905250600090508251600381111561198257fe5b146119d4576040805162461bcd60e51b815260206004820152601a60248201527f696e7465726573742063616c63756c6174696f6e206572726f72000000000000604482015290519081900360640190fd5b60d054670de0b6b3a76400001415611a86576119f4826040015182613e94565b610120840181905283826003811115611a0957fe5b6003811115611a1457fe5b9052506000905082516003811115611a2857fe5b14611a645760405162461bcd60e51b81526004018080602001828103825260218152602001806147646021913960400191505060405180910390fd5b600080611a75846101200151613eb7565b91995097509550611e159350505050565b60d054611aad57604080516020810182526000815260c08401528201516060830152611b85565b60408083015181516020810190925260d0548252611aca91613ec6565b60c0840181905283826003811115611ade57fe5b6003811115611ae957fe5b9052506000905082516003811115611afd57fe5b14611b395760405162461bcd60e51b81526004018080602001828103825260228152602001806146196022913960400191505060405180910390fd5b611b4b82604001518360c00151613df2565b6060840181905283826003811115611b5f57fe5b6003811115611b6a57fe5b9052506000905082516003811115611b7e57fe5b14611b8557fe5b611b9782606001518460200151613ec6565b6080840181905283826003811115611bab57fe5b6003811115611bb657fe5b9052506000905082516003811115611bca57fe5b14611c065760405162461bcd60e51b81526004018080602001828103825260218152602001806145d76021913960400191505060405180910390fd5b611c1882606001518360800151613df2565b60a0840181905283826003811115611c2c57fe5b6003811115611c3757fe5b9052506000905082516003811115611c4b57fe5b14611c5257fe5b611c60826080015182613e94565b60e0840181905283826003811115611c7457fe5b6003811115611c7f57fe5b9052506000905082516003811115611c9357fe5b14611ce5576040805162461bcd60e51b815260206004820181905260248201527f73656e64657220696e74657265737420636f6e76657273696f6e206572726f72604482015290519081900360640190fd5b611cf38260a0015182613e94565b610100840181905283826003811115611d0857fe5b6003811115611d1357fe5b9052506000905082516003811115611d2757fe5b14611d635760405162461bcd60e51b815260040180806020018281038252602381526020018061468d6023913960400191505060405180910390fd5b611d718260c0015182613e94565b610120840181905283826003811115611d8657fe5b6003811115611d9157fe5b9052506000905082516003811115611da557fe5b14611de15760405162461bcd60e51b81526004018080602001828103825260218152602001806147646021913960400191505060405180910390fd5b611dee8260e00151613eb7565b611dfc836101000151613eb7565b611e0a846101200151613eb7565b975097509750505050505b509250925092565b6033546001600160a01b031690565b6033546000906001600160a01b0316611e43612b6d565b6001600160a01b031614905090565b611e5a611e2c565b611e6357600080fd5b6064811115611eb9576040805162461bcd60e51b815260206004820152601f60248201527f6665652070657263656e7461676520686967686572207468616e203130302500604482015290519081900360640190fd5b611ec1614395565b611ed282662386f26fc10000612b08565b6020830181905282826003811115611ee657fe5b6003811115611ef157fe5b9052506000905081516003811115611f0557fe5b14611f0c57fe5b60408051602080820183528301519081905260d0555182907f38e229a7f3f9c329892d08eb37c4e91ccac6d12c798d394990ca4f56028ec26690600090a25050565b600090815260cd602052604090206003015460ff1690565b600081815260d260205260408120600701548290600160a01b900460ff16611fc3576040805162461bcd60e51b8152602060048201526015602482015260008051602061456e833981519152604482015290519081900360640190fd5b611fcb6141fd565b50600083815260d26020908152604091829020825161012081018452815481526001820154928101929092526002810154928201929092526003820154606082018190526004830154608083015260058301546001600160a01b0390811660a08401526006840154811660c084015260079093015492831660e0830152600160a01b90920460ff16151561010082015290421161206c576000925050610db6565b8060800151421015612085576060015142039150610db6565b6060810151608090910151039392505050565b6120a0611e2c565b6120a957600080fd5b609a80546001019081905560ce5460408051632f52e59560e01b81526001600160a01b03868116600483015291519190921691632f52e595916024808301926020929190829003018186803b15801561210157600080fd5b505afa158015612115573d6000803e3d6000fd5b505050506040513d602081101561212b57600080fd5b505161217a576040805162461bcd60e51b815260206004820152601960248201527818d51bdad95b881a5cc81b9bdd081dda1a5d195b1a5cdd1959603a1b604482015290519081900360640190fd5b600082116121c0576040805162461bcd60e51b815260206004820152600e60248201526d616d6f756e74206973207a65726f60901b604482015290519081900360640190fd5b6001600160a01b038316600090815260cf60205260409020548211156122175760405162461bcd60e51b815260040180806020018281038252602481526020018061458e6024913960400191505060405180910390fd5b61221f6143ac565b6001600160a01b038416600090815260cf60205260409020546122429084612b4a565b6001600160a01b038616600090815260cf602052604090208190558282600381111561226a57fe5b600381111561227557fe5b905250600090508151600381111561228957fe5b1461229057fe5b60405183906001600160a01b038616907f13e8af02ad3e36f8d82fc8b86dcd67b7ed11f718f0e52fb245d2038eb71856ba90600090a36040805163a9059cbb60e01b81523360048201526024810185905290516001600160a01b0386169163a9059cbb9160448083019260209291908290030181600087803b15801561231557600080fd5b505af1158015612329573d6000803e3d6000fd5b505050506040513d602081101561233f57600080fd5b505161238b576040805162461bcd60e51b8152602060048201526016602482015275746f6b656e207472616e73666572206661696c75726560501b604482015290519081900360640190fd5b50609a54811461239a57600080fd5b505050565b600054610100900460ff16806123b857506123b8613d7e565b806123c6575060005460ff16155b6124015760405162461bcd60e51b815260040180806020018281038252602e815260200180614712602e913960400191505060405180910390fd5b600054610100900460ff1615801561242c576000805460ff1961ff0019909116610100171660011790555b61243582613faf565b6099805460ff191690558015612451576000805461ff00191690555b5050565b60995460009060ff16156124a3576040805162461bcd60e51b815260206004820152601060248201526f14185d5cd8589b194e881c185d5cd95960821b604482015290519081900360640190fd5b6001600160a01b0386166124fe576040805162461bcd60e51b815260206004820152601a60248201527f73747265616d20746f20746865207a65726f2061646472657373000000000000604482015290519081900360640190fd5b6001600160a01b03861630141561255c576040805162461bcd60e51b815260206004820152601d60248201527f73747265616d20746f2074686520636f6e747261637420697473656c66000000604482015290519081900360640190fd5b6001600160a01b0386163314156125b1576040805162461bcd60e51b815260206004820152601460248201527339ba3932b0b6903a37903a34329031b0b63632b960611b604482015290519081900360640190fd5b600085116125f8576040805162461bcd60e51b815260206004820152600f60248201526e6465706f736974206973207a65726f60881b604482015290519081900360640190fd5b428310156126375760405162461bcd60e51b81526004018080602001828103825260218152602001806145f86021913960400191505060405180910390fd5b82821161268b576040805162461bcd60e51b815260206004820152601f60248201527f73746f702074696d65206265666f7265207468652073746172742074696d6500604482015290519081900360640190fd5b6126936143bf565b61269d8385612b4a565b60208301819052828260038111156126b157fe5b60038111156126bc57fe5b90525060009050815160038111156126d057fe5b146126d757fe5b8060200151861015612730576040805162461bcd60e51b815260206004820152601f60248201527f6465706f73697420736d616c6c6572207468616e2074696d652064656c746100604482015290519081900360640190fd5b8060200151868161273d57fe5b061561277a5760405162461bcd60e51b815260040180806020018281038252602281526020018061463b6022913960400191505060405180910390fd5b612788868260200151614067565b604083018190528282600381111561279c57fe5b60038111156127a757fe5b90525060009050815160038111156127bb57fe5b146127c257fe5b600060d154905060405180610120016040528088815260200183604001518152602001888152602001868152602001858152602001896001600160a01b03168152602001336001600160a01b03168152602001876001600160a01b031681526020016001151581525060d26000838152602001908152602001600020600082015181600001556020820151816001015560408201518160020155606082015181600301556080820151816004015560a08201518160050160006101000a8154816001600160a01b0302191690836001600160a01b0316021790555060c08201518160060160006101000a8154816001600160a01b0302191690836001600160a01b0316021790555060e08201518160070160006101000a8154816001600160a01b0302191690836001600160a01b031602179055506101008201518160070160146101000a81548160ff02191690831515021790555090505061292860d1546001613d84565b60d18190558382600381111561293a57fe5b600381111561294557fe5b905250600090508251600381111561295957fe5b146129ab576040805162461bcd60e51b815260206004820181905260248201527f6e6578742073747265616d2069642063616c63756c6174696f6e206572726f72604482015290519081900360640190fd5b604080516323b872dd60e01b81523360048201523060248201526044810189905290516001600160a01b038816916323b872dd9160648083019260209291908290030181600087803b158015612a0057600080fd5b505af1158015612a14573d6000803e3d6000fd5b505050506040513d6020811015612a2a57600080fd5b5051612a76576040805162461bcd60e51b8152602060048201526016602482015275746f6b656e207472616e73666572206661696c75726560501b604482015290519081900360640190fd5b604080518881526001600160a01b038881166020830152818301889052606082018790529151918a1691339184917f7b01d409597969366dc268d7f957a990d1ca3d3449baf8fb45db67351aecfe789181900360800190a4979650505050505050565b60ce546001600160a01b031681565b60d05481565b612af6611e2c565b612aff57600080fd5b61110781614092565b60008083612b1b57506000905080612b43565b83830283858281612b2857fe5b0414612b3c57506002915060009050612b43565b6000925090505b9250929050565b600080838311612b61575060009050818303612b43565b50600390506000612b43565b3390565b60006001600160a01b038216612b8657600080fd5b506001600160a01b03166000908152602091909152604090205460ff1690565b612bae6141fd565b50600081815260d26020908152604080832081516101208101835281548152600182015493810193909352600281015491830191909152600381015460608301526004810154608083015260058101546001600160a01b0390811660a08401526006820154811660c0840181905260079092015490811660e0840152600160a01b900460ff161515610100830152909190612c4a9084906108a1565b90506000612c5c848460a001516108a1565b600085815260d26020526040812081815560018101829055600281018290556003810182905560048101919091556005810180546001600160a01b0319908116909155600682018054909116905560070180546001600160a81b031916905560e08401519091508115612daa57806001600160a01b031663a9059cbb8560a00151846040518363ffffffff1660e01b815260040180836001600160a01b03166001600160a01b0316815260200182815260200192505050602060405180830381600087803b158015612d2d57600080fd5b505af1158015612d41573d6000803e3d6000fd5b505050506040513d6020811015612d5757600080fd5b5051612daa576040805162461bcd60e51b815260206004820181905260248201527f726563697069656e7420746f6b656e207472616e73666572206661696c757265604482015290519081900360640190fd5b8215612e9157806001600160a01b031663a9059cbb8560c00151856040518363ffffffff1660e01b815260040180836001600160a01b03166001600160a01b0316815260200182815260200192505050602060405180830381600087803b158015612e1457600080fd5b505af1158015612e28573d6000803e3d6000fd5b505050506040513d6020811015612e3e57600080fd5b5051612e91576040805162461bcd60e51b815260206004820152601d60248201527f73656e64657220746f6b656e207472616e73666572206661696c757265000000604482015290519081900360640190fd5b8360a001516001600160a01b03168460c001516001600160a01b0316867fca3e6079b726e7728802a0537949e2d1c7762304fa641fb06eb56daf2ba8c6b98686604051808381526020018281526020019250505060405180910390a45050505050565b612efc6141fd565b50600081815260d2602090815260409182902082516101208101845281548152600182015492810192909252600281015492820192909252600382015460608201526004820154608082015260058201546001600160a01b0390811660a08301526006830154811660c083015260079092015491821660e0820152600160a01b90910460ff161515610100820152612f92614266565b6000612fa2848460c001516108a1565b90506000612fb4858560a001516108a1565b90506000806000612fc588856116ce565b925092509250612fd58584613d84565b6020880181905287826003811115612fe957fe5b6003811115612ff457fe5b905250600090508651600381111561300857fe5b146130445760405162461bcd60e51b81526004018080602001828103825260248152602001806147406024913960400191505060405180910390fd5b61304e8484612b4a565b604088018190528782600381111561306257fe5b600381111561306d57fe5b905250600090508651600381111561308157fe5b146130bd5760405162461bcd60e51b815260040180806020018281038252603b8152602001806146b0603b913960400191505060405180910390fd5b6130cb866040015182612b4a565b60608801819052878260038111156130df57fe5b60038111156130ea57fe5b90525060009050865160038111156130fe57fe5b1461313a5760405162461bcd60e51b81526004018080602001828103825260278152602001806146eb6027913960400191505060405180910390fd5b60e08701516001600160a01b0316600090815260cf60205260409020546131619082613d84565b60e08901516001600160a01b0316600090815260cf602052604090208190558782600381111561318d57fe5b600381111561319857fe5b90525060009050865160038111156131ac57fe5b146131e85760405162461bcd60e51b81526004018080602001828103825260238152602001806144f46023913960400191505060405180910390fd5b600088815260d260209081526040808320838155600180820185905560028083018690556003808401879055600484018790556005840180546001600160a01b03199081169091556006850180549091169055600790930180546001600160a81b031916905560cd855292852085815590810185905591820193909355909101805460ff1916905560e0880151908701511561336357806001600160a01b031663a9059cbb8960c0015189602001516040518363ffffffff1660e01b815260040180836001600160a01b03166001600160a01b0316815260200182815260200192505050602060405180830381600087803b1580156132e657600080fd5b505af11580156132fa573d6000803e3d6000fd5b505050506040513d602081101561331057600080fd5b5051613363576040805162461bcd60e51b815260206004820152601d60248201527f73656e64657220746f6b656e207472616e73666572206661696c757265000000604482015290519081900360640190fd5b60608701511561345257806001600160a01b031663a9059cbb8960a0015189606001516040518363ffffffff1660e01b815260040180836001600160a01b03166001600160a01b0316815260200182815260200192505050602060405180830381600087803b1580156133d557600080fd5b505af11580156133e9573d6000803e3d6000fd5b505050506040513d60208110156133ff57600080fd5b5051613452576040805162461bcd60e51b815260206004820181905260248201527f726563697069656e7420746f6b656e207472616e73666572206661696c757265604482015290519081900360640190fd5b8760a001516001600160a01b03168860c001516001600160a01b03168a7fca3e6079b726e7728802a0537949e2d1c7762304fa641fb06eb56daf2ba8c6b98a602001518b60600151604051808381526020018281526020019250505060405180910390a4604080518581526020810185905280820184905290518a917f5a8a03e48302e0bd2e011a3a2b54d1f849c55497f462f404bf52dce4290456b5919081900360600190a2505050505050505050565b61350c6141fd565b50600082815260d2602090815260409182902082516101208101845281548152600182015492810192909252600281015492820192909252600382015460608201526004820154608082015260058201546001600160a01b0390811660a08301526006830154811660c083015260079092015491821660e0820152600160a01b90910460ff1615156101008201526135a26143ac565b6135b0826040015184612b4a565b600086815260d260205260409020600201819055828260038111156135d157fe5b60038111156135dc57fe5b90525060009050815160038111156135f057fe5b146135f757fe5b600084815260d2602052604090206002015461366d57600084815260d26020526040812081815560018101829055600281018290556003810182905560048101919091556005810180546001600160a01b0319908116909155600682018054909116905560070180546001600160a81b03191690555b8160e001516001600160a01b031663a9059cbb8360a00151856040518363ffffffff1660e01b815260040180836001600160a01b03166001600160a01b0316815260200182815260200192505050602060405180830381600087803b1580156136d557600080fd5b505af11580156136e9573d6000803e3d6000fd5b505050506040513d60208110156136ff57600080fd5b505161374b576040805162461bcd60e51b8152602060048201526016602482015275746f6b656e207472616e73666572206661696c75726560501b604482015290519081900360640190fd5b8160a001516001600160a01b0316847f36c3ab437e6a424ed25dc4bfdeb62706aa06558660fab2dab229d2555adaf89c856040518082815260200191505060405180910390a350505050565b61379f6141fd565b50600082815260d2602090815260409182902082516101208101845281548152600182015492810192909252600281015492820192909252600382015460608201526004820154608082015260058201546001600160a01b0390811660a08301526006830154811660c083015260079092015491821660e0820152600160a01b90910460ff1615156101008201526138356143bf565b600080600061384487876116ce565b9250925092506138548684612b4a565b602086018190528582600381111561386857fe5b600381111561387357fe5b905250600090508451600381111561388757fe5b146138c35760405162461bcd60e51b815260040180806020018281038252603081526020018061465d6030913960400191505060405180910390fd5b6138d1846020015182612b4a565b60408601819052858260038111156138e557fe5b60038111156138f057fe5b905250600090508451600381111561390457fe5b146139405760405162461bcd60e51b81526004018080602001828103825260278152602001806145476027913960400191505060405180910390fd5b61394e856040015187612b4a565b600089815260d2602052604090206002018190558582600381111561396f57fe5b600381111561397a57fe5b905250600090508451600381111561398e57fe5b146139ca5760405162461bcd60e51b81526004018080602001828103825260258152602001806145b26025913960400191505060405180910390fd5b600087815260d26020526040902060020154613a6857600087815260d260209081526040808320838155600180820185905560028083018690556003808401879055600484018790556005840180546001600160a01b03199081169091556006850180549091169055600790930180546001600160a81b031916905560cd9094529184208481559182018490559181019290925501805460ff191690555b60e08501516001600160a01b0316600090815260cf6020526040902054613a8f9082613d84565b60e08701516001600160a01b0316600090815260cf6020526040902081905585826003811115613abb57fe5b6003811115613ac657fe5b9052506000905084516003811115613ada57fe5b14613b165760405162461bcd60e51b81526004018080602001828103825260238152602001806144f46023913960400191505060405180910390fd5b60e08501518315613c0257806001600160a01b031663a9059cbb8760c00151866040518363ffffffff1660e01b815260040180836001600160a01b03166001600160a01b0316815260200182815260200192505050602060405180830381600087803b158015613b8557600080fd5b505af1158015613b99573d6000803e3d6000fd5b505050506040513d6020811015613baf57600080fd5b5051613c02576040805162461bcd60e51b815260206004820152601d60248201527f73656e64657220746f6b656e207472616e73666572206661696c757265000000604482015290519081900360640190fd5b806001600160a01b031663a9059cbb8760a0015187604001516040518363ffffffff1660e01b815260040180836001600160a01b03166001600160a01b0316815260200182815260200192505050602060405180830381600087803b158015613c6a57600080fd5b505af1158015613c7e573d6000803e3d6000fd5b505050506040513d6020811015613c9457600080fd5b5051613ce7576040805162461bcd60e51b815260206004820181905260248201527f726563697069656e7420746f6b656e207472616e73666572206661696c757265604482015290519081900360640190fd5b8560a001516001600160a01b0316887f36c3ab437e6a424ed25dc4bfdeb62706aa06558660fab2dab229d2555adaf89c87604001516040518082815260200191505060405180910390a36040805185815260208101859052808201849052905189917f5a8a03e48302e0bd2e011a3a2b54d1f849c55497f462f404bf52dce4290456b5919081900360600190a25050505050505050565b303b1590565b600080838301848110613d9c57600092509050612b43565b506002915060009050612b43565b613dbb60668263ffffffff61410116565b6040516001600160a01b038216907f6719d08c1888103bea251a4ed56406bd0c3e69723c8a1686e017e7bbe159b6f890600090a250565b6000613dfc614382565b600080613e1186600001518660000151612b4a565b60408051602081019091529081529097909650945050505050565b6000613e36614382565b600080613e47866000015186612b08565b90925090506000826003811115613e5a57fe5b14613e7957506040805160208101909152600081529092509050612b43565b60408051602081019091529081526000969095509350505050565b6000613e9e614382565b83518351613eac919061414d565b915091509250929050565b51670de0b6b3a7640000900490565b6000613ed0614382565b600080613ee586600001518660000151612b08565b90925090506000826003811115613ef857fe5b14613f1757506040805160208101909152600081529092509050612b43565b600080613f2c6706f05b59d3b2000084613d84565b90925090506000826003811115613f3f57fe5b14613f6157506040805160208101909152600081529094509250612b43915050565b600080613f7683670de0b6b3a7640000614067565b90925090506000826003811115613f8957fe5b14613f9057fe5b604080516020810190915290815260009a909950975050505050505050565b600054610100900460ff1680613fc85750613fc8613d7e565b80613fd6575060005460ff16155b6140115760405162461bcd60e51b815260040180806020018281038252602e815260200180614712602e913960400191505060405180910390fd5b600054610100900460ff1615801561403c576000805460ff1961ff0019909116610100171660011790555b61404582610c67565b6140525761405282613daa565b8015612451576000805461ff00191690555050565b6000808261407b5750600190506000612b43565b600083858161408657fe5b04915091509250929050565b6001600160a01b0381166140a557600080fd5b6033546040516001600160a01b038084169216907f8be0079c531659141344cd1fd0a4f28419497f9722a3daafe3b4186f6b6457e090600090a3603380546001600160a01b0319166001600160a01b0392909216919091179055565b6001600160a01b03811661411457600080fd5b61411e8282612b71565b1561412857600080fd5b6001600160a01b0316600090815260209190915260409020805460ff19166001179055565b6000614157614382565b60008061416c86670de0b6b3a7640000612b08565b9092509050600082600381111561417f57fe5b1461419e57506040805160208101909152600081529092509050612b43565b6000806141ab8388614067565b909250905060008260038111156141be57fe5b146141e057506040805160208101909152600081529094509250612b43915050565b604080516020810190915290815260009890975095505050505050565b604051806101200160405280600081526020016000815260200160008152602001600081526020016000815260200160006001600160a01b0316815260200160006001600160a01b0316815260200160006001600160a01b031681526020016000151581525090565b604080516080810190915280600081526020016000815260200160008152602001600081525090565b6040805160a081019091528060008152602001600081526020016000815260200160008152602001600081525090565b60405180608001604052806142d2614382565b81526020016142df614382565b81526020016142ec614382565b8152600060209091015290565b6040805161014081019091528060008152602001614315614382565b8152602001614322614382565b815260200161432f614382565b815260200161433c614382565b8152602001614349614382565b8152602001614356614382565b8152602001614363614382565b8152602001614370614382565b815260200161437d614382565b905290565b6040518060200160405280600081525090565b604080518082019091526000808252602082015290565b604080516020810190915280600061437d565b6040805160608101909152806000815260200160008152602001600081525090565b600054610100900460ff16806143fa57506143fa613d7e565b80614408575060005460ff16155b6144435760405162461bcd60e51b815260040180806020018281038252602e815260200180614712602e913960400191505060405180910390fd5b600054610100900460ff1615801561446e576000805460ff1961ff0019909116610100171660011790555b603380546001600160a01b0319166001600160a01b0384811691909117918290556040519116906000907f8be0079c531659141344cd1fd0a4f28419497f9722a3daafe3b4186f6b6457e0908290a38015612451576000805461ff0019169055505056fe636f6d706f756e64696e672073747265616d20646f6573206e6f742065786973746561726e696e6773206164646974696f6e2063616c63756c6174696f6e206572726f72506175736572526f6c653a2063616c6c657220646f6573206e6f742068617665207468652050617573657220726f6c656e6574207769746864726177616c20616d6f756e742063616c63756c6174696f6e206572726f7273747265616d20646f6573206e6f742065786973740000000000000000000000616d6f756e7420657863656564732074686520617661696c61626c652062616c616e636562616c616e6365207375627472616374696f6e2063616c63756c6174696f6e206572726f7273656e64657220696e7465726573742063616c63756c6174696f6e206572726f7273746172742074696d65206265666f726520626c6f636b2e74696d657374616d707361626c69657220696e7465726573742063616c63756c6174696f6e206572726f726465706f736974206e6f74206d756c7469706c65206f662074696d652064656c7461616d6f756e7420776974686f75742073656e64657220696e7465726573742063616c63756c6174696f6e206572726f72726563697069656e7420696e74657265737420636f6e76657273696f6e206572726f72726563697069656e742062616c616e636520776974686f75742073656e64657220696e7465726573742063616c63756c6174696f6e206572726f726e657420726563697069656e742062616c616e63652063616c63756c6174696f6e206572726f72436f6e747261637420696e7374616e63652068617320616c7265616479206265656e20696e697469616c697a65646e65742073656e6465722062616c616e63652063616c63756c6174696f6e206572726f727361626c69657220696e74657265737420636f6e76657273696f6e206572726f72726563697069656e742062616c616e63652063616c63756c6174696f6e206572726f7263616c6c6572206973206e6f74207468652073656e646572206f722074686520726563697069656e74206f66207468652073747265616da265627a7a72315820b3c6d68ed43f9b6ce87bdc3b8eb173cf63ab5e23bfe0685931ffb0a9d4f494e064736f6c634300050b0032436f6e747261637420696e7374616e63652068617320616c7265616479206265656e20696e697469616c697a656463546f6b656e4d616e6167657220636f6e747261637420697320746865207a65726f2061646472657373",
  "source": "pragma solidity 0.5.11;\n\nimport \"@openzeppelin/contracts-ethereum-package/contracts/token/ERC20/IERC20.sol\";\nimport \"@openzeppelin/contracts-ethereum-package/contracts/utils/ReentrancyGuard.sol\";\n\nimport \"@sablier/shared-contracts/compound/Exponential.sol\";\nimport \"@sablier/shared-contracts/interfaces/ICERC20.sol\";\nimport \"@sablier/shared-contracts/lifecycle/OwnableWithoutRenounce.sol\";\nimport \"@sablier/shared-contracts/lifecycle/PausableWithoutRenounce.sol\";\n\nimport \"./interfaces/ICTokenManager.sol\";\nimport \"./interfaces/IERC1620.sol\";\nimport \"./Types.sol\";\n\n/**\n * @title Sablier's Money Streaming\n * @author Sablier\n */\ncontract Sablier is IERC1620, OwnableWithoutRenounce, PausableWithoutRenounce, Exponential, ReentrancyGuard {\n    /*** Storage Properties ***/\n\n    /**\n     * @notice In Exp terms, 1e18 is 1, or 100%\n     */\n    uint256 constant hundredPercent = 1e18;\n\n    /**\n     * @notice In Exp terms, 1e16 is 0.01, or 1%\n     */\n    uint256 constant onePercent = 1e16;\n\n    /**\n     * @notice Stores information about the initial state of the underlying of the cToken.\n     */\n    mapping(uint256 => Types.CompoundingStreamVars) private compoundingStreamsVars;\n\n    /**\n     * @notice An instance of CTokenManager, responsible for whitelisting and discarding cTokens.\n     */\n    ICTokenManager public cTokenManager;\n\n    /**\n     * @notice The amount of interest has been accrued per token address.\n     */\n    mapping(address => uint256) private earnings;\n\n    /**\n     * @notice The percentage fee charged by the contract on the accrued interest.\n     */\n    Exp public fee;\n\n    /**\n     * @notice Counter for new stream ids.\n     */\n    uint256 public nextStreamId;\n\n    /**\n     * @notice The stream objects identifiable by their unsigned integer ids.\n     */\n    mapping(uint256 => Types.Stream) private streams;\n\n    /*** Events ***/\n\n    /**\n     * @notice Emits when a compounding stream is successfully created.\n     */\n    event CreateCompoundingStream(\n        uint256 indexed streamId,\n        uint256 exchangeRate,\n        uint256 senderSharePercentage,\n        uint256 recipientSharePercentage\n    );\n\n    /**\n     * @notice Emits when the owner discards a cToken.\n     */\n    event PayInterest(\n        uint256 indexed streamId,\n        uint256 senderInterest,\n        uint256 recipientInterest,\n        uint256 sablierInterest\n    );\n\n    /**\n     * @notice Emits when the owner takes the earnings.\n     */\n    event TakeEarnings(address indexed tokenAddress, uint256 indexed amount);\n\n    /**\n     * @notice Emits when the owner updates the percentage fee.\n     */\n    event UpdateFee(uint256 indexed fee);\n\n    /*** Modifiers ***/\n\n    /**\n     * @dev Throws if the caller is not the sender of the recipient of the stream.\n     */\n    modifier onlySenderOrRecipient(uint256 streamId) {\n        require(\n            msg.sender == streams[streamId].sender || msg.sender == streams[streamId].recipient,\n            \"caller is not the sender or the recipient of the stream\"\n        );\n        _;\n    }\n\n    /**\n     * @dev Throws if the provided id does not point to a valid stream.\n     */\n    modifier streamExists(uint256 streamId) {\n        require(streams[streamId].isEntity, \"stream does not exist\");\n        _;\n    }\n\n    /**\n     * @dev Throws if the provided id does not point to a valid compounding stream.\n     */\n    modifier compoundingStreamExists(uint256 streamId) {\n        require(compoundingStreamsVars[streamId].isEntity, \"compounding stream does not exist\");\n        _;\n    }\n\n    /*** Contract Logic Starts Here */\n\n    constructor(address cTokenManagerAddress) public {\n        require(cTokenManagerAddress != address(0x00), \"cTokenManager contract is the zero address\");\n        OwnableWithoutRenounce.initialize(msg.sender);\n        PausableWithoutRenounce.initialize(msg.sender);\n        cTokenManager = ICTokenManager(cTokenManagerAddress);\n        nextStreamId = 1;\n    }\n\n    /*** Owner Functions ***/\n\n    struct UpdateFeeLocalVars {\n        MathError mathErr;\n        uint256 feeMantissa;\n    }\n\n    /**\n     * @notice Updates the Sablier fee.\n     * @dev Throws if the caller is not the owner of the contract.\n     *  Throws if `feePercentage` is not lower or equal to 100.\n     * @param feePercentage The new fee as a percentage.\n     */\n    function updateFee(uint256 feePercentage) external onlyOwner {\n        require(feePercentage <= 100, \"fee percentage higher than 100%\");\n        UpdateFeeLocalVars memory vars;\n\n        /* `feePercentage` will be stored as a mantissa, so we scale it up by one percent in Exp terms. */\n        (vars.mathErr, vars.feeMantissa) = mulUInt(feePercentage, onePercent);\n        /*\n         * `mulUInt` can only return MathError.INTEGER_OVERFLOW but we control `onePercent`\n         * and we know `feePercentage` is maximum 100.\n         */\n        assert(vars.mathErr == MathError.NO_ERROR);\n\n        fee = Exp({ mantissa: vars.feeMantissa });\n        emit UpdateFee(feePercentage);\n    }\n\n    struct TakeEarningsLocalVars {\n        MathError mathErr;\n    }\n\n    /**\n     * @notice Withdraws the earnings for the given token address.\n     * @dev Throws if `amount` exceeds the available balance.\n     * @param tokenAddress The address of the token to withdraw earnings for.\n     * @param amount The amount of tokens to withdraw.\n     */\n    function takeEarnings(address tokenAddress, uint256 amount) external onlyOwner nonReentrant {\n        require(cTokenManager.isCToken(tokenAddress), \"cToken is not whitelisted\");\n        require(amount > 0, \"amount is zero\");\n        require(earnings[tokenAddress] >= amount, \"amount exceeds the available balance\");\n\n        TakeEarningsLocalVars memory vars;\n        (vars.mathErr, earnings[tokenAddress]) = subUInt(earnings[tokenAddress], amount);\n        /*\n         * `subUInt` can only return MathError.INTEGER_UNDERFLOW but we know `earnings[tokenAddress]`\n         * is at least as big as `amount`.\n         */\n        assert(vars.mathErr == MathError.NO_ERROR);\n\n        emit TakeEarnings(tokenAddress, amount);\n        require(IERC20(tokenAddress).transfer(msg.sender, amount), \"token transfer failure\");\n    }\n\n    /*** View Functions ***/\n\n    /**\n     * @notice Returns the compounding stream with all its properties.\n     * @dev Throws if the id does not point to a valid stream.\n     * @param streamId The id of the stream to query.\n     * @return The stream object.\n     */\n    function getStream(uint256 streamId)\n        external\n        view\n        streamExists(streamId)\n        returns (\n            address sender,\n            address recipient,\n            uint256 deposit,\n            address tokenAddress,\n            uint256 startTime,\n            uint256 stopTime,\n            uint256 remainingBalance,\n            uint256 ratePerSecond\n        )\n    {\n        sender = streams[streamId].sender;\n        recipient = streams[streamId].recipient;\n        deposit = streams[streamId].deposit;\n        tokenAddress = streams[streamId].tokenAddress;\n        startTime = streams[streamId].startTime;\n        stopTime = streams[streamId].stopTime;\n        remainingBalance = streams[streamId].remainingBalance;\n        ratePerSecond = streams[streamId].ratePerSecond;\n    }\n\n    /**\n     * @notice Returns either the delta in seconds between `block.timestamp` and `startTime` or\n     *  between `stopTime` and `startTime, whichever is smaller. If `block.timestamp` is before\n     *  `startTime`, it returns 0.\n     * @dev Throws if the id does not point to a valid stream.\n     * @param streamId The id of the stream for which to query the delta.\n     * @return The time delta in seconds.\n     */\n    function deltaOf(uint256 streamId) public view streamExists(streamId) returns (uint256 delta) {\n        Types.Stream memory stream = streams[streamId];\n        if (block.timestamp <= stream.startTime) return 0;\n        if (block.timestamp < stream.stopTime) return block.timestamp - stream.startTime;\n        return stream.stopTime - stream.startTime;\n    }\n\n    struct BalanceOfLocalVars {\n        MathError mathErr;\n        uint256 recipientBalance;\n        uint256 withdrawalAmount;\n        uint256 senderBalance;\n    }\n\n    /**\n     * @notice Returns the available funds for the given stream id and address.\n     * @dev Throws if the id does not point to a valid stream.\n     * @param streamId The id of the stream for which to query the balance.\n     * @param who The address for which to query the balance.\n     * @return The total funds allocated to `who` as uint256.\n     */\n    function balanceOf(uint256 streamId, address who) public view streamExists(streamId) returns (uint256 balance) {\n        Types.Stream memory stream = streams[streamId];\n        BalanceOfLocalVars memory vars;\n\n        uint256 delta = deltaOf(streamId);\n        (vars.mathErr, vars.recipientBalance) = mulUInt(delta, stream.ratePerSecond);\n        require(vars.mathErr == MathError.NO_ERROR, \"recipient balance calculation error\");\n\n        /*\n         * If the stream `balance` does not equal `deposit`, it means there have been withdrawals.\n         * We have to subtract the total amount withdrawn from the amount of money that has been\n         * streamed until now.\n         */\n        if (stream.deposit > stream.remainingBalance) {\n            (vars.mathErr, vars.withdrawalAmount) = subUInt(stream.deposit, stream.remainingBalance);\n            assert(vars.mathErr == MathError.NO_ERROR);\n            (vars.mathErr, vars.recipientBalance) = subUInt(vars.recipientBalance, vars.withdrawalAmount);\n            /* `withdrawalAmount` cannot and should not be bigger than `recipientBalance`. */\n            assert(vars.mathErr == MathError.NO_ERROR);\n        }\n\n        if (who == stream.recipient) return vars.recipientBalance;\n        if (who == stream.sender) {\n            (vars.mathErr, vars.senderBalance) = subUInt(stream.remainingBalance, vars.recipientBalance);\n            /* `recipientBalance` cannot and should not be bigger than `remainingBalance`. */\n            assert(vars.mathErr == MathError.NO_ERROR);\n            return vars.senderBalance;\n        }\n        return 0;\n    }\n\n    /**\n     * @notice Checks if the provided id points to a valid compounding stream.\n     * @param streamId The id of the compounding stream to check.\n     * @return bool true=if it is a compounding stream, otherwise false.\n     */\n    function isCompoundingStream(uint256 streamId) public view returns (bool) {\n        return compoundingStreamsVars[streamId].isEntity;\n    }\n\n    /**\n     * @notice Returns the compounding stream object with all its properties.\n     * @dev Throws if the id does not point to a valid compounding stream.\n     * @param streamId The id of the compounding stream to query.\n     * @return The compounding stream object.\n     */\n    function getCompoundingStream(uint256 streamId)\n        external\n        view\n        streamExists(streamId)\n        compoundingStreamExists(streamId)\n        returns (\n            address sender,\n            address recipient,\n            uint256 deposit,\n            address tokenAddress,\n            uint256 startTime,\n            uint256 stopTime,\n            uint256 remainingBalance,\n            uint256 ratePerSecond,\n            uint256 exchangeRateInitial,\n            uint256 senderSharePercentage,\n            uint256 recipientSharePercentage\n        )\n    {\n        sender = streams[streamId].sender;\n        recipient = streams[streamId].recipient;\n        deposit = streams[streamId].deposit;\n        tokenAddress = streams[streamId].tokenAddress;\n        startTime = streams[streamId].startTime;\n        stopTime = streams[streamId].stopTime;\n        remainingBalance = streams[streamId].remainingBalance;\n        ratePerSecond = streams[streamId].ratePerSecond;\n        exchangeRateInitial = compoundingStreamsVars[streamId].exchangeRateInitial.mantissa;\n        senderSharePercentage = compoundingStreamsVars[streamId].senderShare.mantissa;\n        recipientSharePercentage = compoundingStreamsVars[streamId].recipientShare.mantissa;\n    }\n\n    struct InterestOfLocalVars {\n        MathError mathErr;\n        Exp exchangeRateDelta;\n        Exp underlyingInterest;\n        Exp netUnderlyingInterest;\n        Exp senderUnderlyingInterest;\n        Exp recipientUnderlyingInterest;\n        Exp sablierUnderlyingInterest;\n        Exp senderInterest;\n        Exp recipientInterest;\n        Exp sablierInterest;\n    }\n\n    /**\n     * @notice Computes the interest accrued while the money has been streamed. Returns (0, 0, 0) if\n     *  the stream is either not a compounding stream or it does not exist.\n     * @dev Throws if there is a math error. We do not assert the calculations which involve the current\n     *  exchange rate, because we can't know what value we'll get back from the cToken contract.\n     * @param streamId The id of the compounding stream for which to calculate the interest.\n     * @param amount The amount of money with respect to which to calculate the interest.\n     * @return The interest accrued by the sender, the recipient and sablier, respectively, as uint256s.\n     */\n    function interestOf(uint256 streamId, uint256 amount)\n        public\n        streamExists(streamId)\n        returns (uint256 senderInterest, uint256 recipientInterest, uint256 sablierInterest)\n    {\n        if (!compoundingStreamsVars[streamId].isEntity) {\n            return (0, 0, 0);\n        }\n        Types.Stream memory stream = streams[streamId];\n        Types.CompoundingStreamVars memory compoundingStreamVars = compoundingStreamsVars[streamId];\n        InterestOfLocalVars memory vars;\n\n        /*\n         * The exchange rate delta is a key variable, since it leads us to how much interest has been earned\n         * since the compounding stream was created.\n         */\n        Exp memory exchangeRateCurrent = Exp({ mantissa: ICERC20(stream.tokenAddress).exchangeRateCurrent() });\n        if (exchangeRateCurrent.mantissa <= compoundingStreamVars.exchangeRateInitial.mantissa) {\n            return (0, 0, 0);\n        }\n        (vars.mathErr, vars.exchangeRateDelta) = subExp(exchangeRateCurrent, compoundingStreamVars.exchangeRateInitial);\n        assert(vars.mathErr == MathError.NO_ERROR);\n\n        /* Calculate how much interest has been earned by holding `amount` in the smart contract. */\n        (vars.mathErr, vars.underlyingInterest) = mulScalar(vars.exchangeRateDelta, amount);\n        require(vars.mathErr == MathError.NO_ERROR, \"interest calculation error\");\n\n        /* Calculate our share from that interest. */\n        if (fee.mantissa == hundredPercent) {\n            (vars.mathErr, vars.sablierInterest) = divExp(vars.underlyingInterest, exchangeRateCurrent);\n            require(vars.mathErr == MathError.NO_ERROR, \"sablier interest conversion error\");\n            return (0, 0, truncate(vars.sablierInterest));\n        } else if (fee.mantissa == 0) {\n            vars.sablierUnderlyingInterest = Exp({ mantissa: 0 });\n            vars.netUnderlyingInterest = vars.underlyingInterest;\n        } else {\n            (vars.mathErr, vars.sablierUnderlyingInterest) = mulExp(vars.underlyingInterest, fee);\n            require(vars.mathErr == MathError.NO_ERROR, \"sablier interest calculation error\");\n\n            /* Calculate how much interest is left for the sender and the recipient. */\n            (vars.mathErr, vars.netUnderlyingInterest) = subExp(\n                vars.underlyingInterest,\n                vars.sablierUnderlyingInterest\n            );\n            /*\n             * `subUInt` can only return MathError.INTEGER_UNDERFLOW but we know that `sablierUnderlyingInterest`\n             * is less or equal than `underlyingInterest`, because we control the value of `fee`.\n             */\n            assert(vars.mathErr == MathError.NO_ERROR);\n        }\n\n        /* Calculate the sender's share of the interest. */\n        (vars.mathErr, vars.senderUnderlyingInterest) = mulExp(\n            vars.netUnderlyingInterest,\n            compoundingStreamVars.senderShare\n        );\n        require(vars.mathErr == MathError.NO_ERROR, \"sender interest calculation error\");\n\n        /* Calculate the recipient's share of the interest. */\n        (vars.mathErr, vars.recipientUnderlyingInterest) = subExp(\n            vars.netUnderlyingInterest,\n            vars.senderUnderlyingInterest\n        );\n        /*\n         * `subUInt` can only return MathError.INTEGER_UNDERFLOW but we know that `senderUnderlyingInterest`\n         * is less or equal than `netUnderlyingInterest`, because `senderShare` is bounded between 1e16 and 1e18.\n         */\n        assert(vars.mathErr == MathError.NO_ERROR);\n\n        /* Convert the interest to the equivalent cToken denomination. */\n        (vars.mathErr, vars.senderInterest) = divExp(vars.senderUnderlyingInterest, exchangeRateCurrent);\n        require(vars.mathErr == MathError.NO_ERROR, \"sender interest conversion error\");\n\n        (vars.mathErr, vars.recipientInterest) = divExp(vars.recipientUnderlyingInterest, exchangeRateCurrent);\n        require(vars.mathErr == MathError.NO_ERROR, \"recipient interest conversion error\");\n\n        (vars.mathErr, vars.sablierInterest) = divExp(vars.sablierUnderlyingInterest, exchangeRateCurrent);\n        require(vars.mathErr == MathError.NO_ERROR, \"sablier interest conversion error\");\n\n        /* Truncating the results means losing everything on the last 1e18 positions of the mantissa */\n        return (truncate(vars.senderInterest), truncate(vars.recipientInterest), truncate(vars.sablierInterest));\n    }\n\n    /**\n     * @notice Returns the amount of interest that has been accrued for the given token address.\n     * @param tokenAddress The address of the token to get the earnings for.\n     * @return The amount of interest as uint256.\n     */\n    function getEarnings(address tokenAddress) external view returns (uint256) {\n        require(cTokenManager.isCToken(tokenAddress), \"token is not cToken\");\n        return earnings[tokenAddress];\n    }\n\n    /*** Public Effects & Interactions Functions ***/\n\n    struct CreateStreamLocalVars {\n        MathError mathErr;\n        uint256 duration;\n        uint256 ratePerSecond;\n    }\n\n    /**\n     * @notice Creates a new stream funded by `msg.sender` and paid towards `recipient`.\n     * @dev Throws if paused.\n     *  Throws if the recipient is the zero address, the contract itself or the caller.\n     *  Throws if the deposit is 0.\n     *  Throws if the start time is before `block.timestamp`.\n     *  Throws if the stop time is before the start time.\n     *  Throws if the duration calculation has a math error.\n     *  Throws if the deposit is smaller than the duration.\n     *  Throws if the deposit is not a multiple of the duration.\n     *  Throws if the rate calculation has a math error.\n     *  Throws if the next stream id calculation has a math error.\n     *  Throws if the contract is not allowed to transfer enough tokens.\n     *  Throws if there is a token transfer failure.\n     * @param recipient The address towards which the money is streamed.\n     * @param deposit The amount of money to be streamed.\n     * @param tokenAddress The ERC20 token to use as streaming currency.\n     * @param startTime The unix timestamp for when the stream starts.\n     * @param stopTime The unix timestamp for when the stream stops.\n     * @return The uint256 id of the newly created stream.\n     */\n    function createStream(address recipient, uint256 deposit, address tokenAddress, uint256 startTime, uint256 stopTime)\n        public\n        whenNotPaused\n        returns (uint256)\n    {\n        require(recipient != address(0x00), \"stream to the zero address\");\n        require(recipient != address(this), \"stream to the contract itself\");\n        require(recipient != msg.sender, \"stream to the caller\");\n        require(deposit > 0, \"deposit is zero\");\n        require(startTime >= block.timestamp, \"start time before block.timestamp\");\n        require(stopTime > startTime, \"stop time before the start time\");\n\n        CreateStreamLocalVars memory vars;\n        (vars.mathErr, vars.duration) = subUInt(stopTime, startTime);\n        /* `subUInt` can only return MathError.INTEGER_UNDERFLOW but we know `stopTime` is higher than `startTime`. */\n        assert(vars.mathErr == MathError.NO_ERROR);\n\n        /* Without this, the rate per second would be zero. */\n        require(deposit >= vars.duration, \"deposit smaller than time delta\");\n\n        /* This condition avoids dealing with remainders */\n        require(deposit % vars.duration == 0, \"deposit not multiple of time delta\");\n\n        (vars.mathErr, vars.ratePerSecond) = divUInt(deposit, vars.duration);\n        /* `divUInt` can only return MathError.DIVISION_BY_ZERO but we know `duration` is not zero. */\n        assert(vars.mathErr == MathError.NO_ERROR);\n\n        /* Create and store the stream object. */\n        uint256 streamId = nextStreamId;\n        streams[streamId] = Types.Stream({\n            remainingBalance: deposit,\n            deposit: deposit,\n            isEntity: true,\n            ratePerSecond: vars.ratePerSecond,\n            recipient: recipient,\n            sender: msg.sender,\n            startTime: startTime,\n            stopTime: stopTime,\n            tokenAddress: tokenAddress\n        });\n\n        /* Increment the next stream id. */\n        (vars.mathErr, nextStreamId) = addUInt(nextStreamId, uint256(1));\n        require(vars.mathErr == MathError.NO_ERROR, \"next stream id calculation error\");\n\n        require(IERC20(tokenAddress).transferFrom(msg.sender, address(this), deposit), \"token transfer failure\");\n        emit CreateStream(streamId, msg.sender, recipient, deposit, tokenAddress, startTime, stopTime);\n        return streamId;\n    }\n\n    struct CreateCompoundingStreamLocalVars {\n        MathError mathErr;\n        uint256 shareSum;\n        uint256 underlyingBalance;\n        uint256 senderShareMantissa;\n        uint256 recipientShareMantissa;\n    }\n\n    /**\n     * @notice Creates a new compounding stream funded by `msg.sender` and paid towards `recipient`.\n     * @dev Inherits all security checks from `createStream`.\n     *  Throws if the cToken is not whitelisted.\n     *  Throws if the sender share percentage and the recipient share percentage do not sum up to 100.\n     *  Throws if the the sender share mantissa calculation has a math error.\n     *  Throws if the the recipient share mantissa calculation has a math error.\n     * @param recipient The address towards which the money is streamed.\n     * @param deposit The amount of money to be streamed.\n     * @param tokenAddress The ERC20 token to use as streaming currency.\n     * @param startTime The unix timestamp for when the stream starts.\n     * @param stopTime The unix timestamp for when the stream stops.\n     * @param senderSharePercentage The sender's share of the interest, as a percentage.\n     * @param recipientSharePercentage The recipient's share of the interest, as a percentage.\n     * @return The uint256 id of the newly created compounding stream.\n     */\n    function createCompoundingStream(\n        address recipient,\n        uint256 deposit,\n        address tokenAddress,\n        uint256 startTime,\n        uint256 stopTime,\n        uint256 senderSharePercentage,\n        uint256 recipientSharePercentage\n    ) external whenNotPaused returns (uint256) {\n        require(cTokenManager.isCToken(tokenAddress), \"cToken is not whitelisted\");\n        CreateCompoundingStreamLocalVars memory vars;\n\n        /* Ensure that the interest shares sum up to 100%. */\n        (vars.mathErr, vars.shareSum) = addUInt(senderSharePercentage, recipientSharePercentage);\n        require(vars.mathErr == MathError.NO_ERROR, \"share sum calculation error\");\n        require(vars.shareSum == 100, \"shares do not sum up to 100\");\n\n        uint256 streamId = createStream(recipient, deposit, tokenAddress, startTime, stopTime);\n\n        /*\n         * `senderSharePercentage` and `recipientSharePercentage` will be stored as mantissas, so we scale them up\n         * by one percent in Exp terms.\n         */\n        (vars.mathErr, vars.senderShareMantissa) = mulUInt(senderSharePercentage, onePercent);\n        /*\n         * `mulUInt` can only return MathError.INTEGER_OVERFLOW but we control `onePercent` and\n         * we know `senderSharePercentage` is maximum 100.\n         */\n        assert(vars.mathErr == MathError.NO_ERROR);\n\n        (vars.mathErr, vars.recipientShareMantissa) = mulUInt(recipientSharePercentage, onePercent);\n        /*\n         * `mulUInt` can only return MathError.INTEGER_OVERFLOW but we control `onePercent` and\n         * we know `recipientSharePercentage` is maximum 100.\n         */\n        assert(vars.mathErr == MathError.NO_ERROR);\n\n        /* Create and store the compounding stream vars. */\n        uint256 exchangeRateCurrent = ICERC20(tokenAddress).exchangeRateCurrent();\n        compoundingStreamsVars[streamId] = Types.CompoundingStreamVars({\n            exchangeRateInitial: Exp({ mantissa: exchangeRateCurrent }),\n            isEntity: true,\n            recipientShare: Exp({ mantissa: vars.recipientShareMantissa }),\n            senderShare: Exp({ mantissa: vars.senderShareMantissa })\n        });\n\n        emit CreateCompoundingStream(streamId, exchangeRateCurrent, senderSharePercentage, recipientSharePercentage);\n        return streamId;\n    }\n\n    /**\n     * @notice Withdraws from the contract to the recipient's account.\n     * @dev Throws if the id does not point to a valid stream.\n     *  Throws if the caller is not the sender or the recipient of the stream.\n     *  Throws if the amount exceeds the available balance.\n     *  Throws if there is a token transfer failure.\n     * @param streamId The id of the stream to withdraw tokens from.\n     * @param amount The amount of tokens to withdraw.\n     * @return bool true=success, otherwise false.\n     */\n    function withdrawFromStream(uint256 streamId, uint256 amount)\n        external\n        whenNotPaused\n        nonReentrant\n        streamExists(streamId)\n        onlySenderOrRecipient(streamId)\n        returns (bool)\n    {\n        require(amount > 0, \"amount is zero\");\n        Types.Stream memory stream = streams[streamId];\n        uint256 balance = balanceOf(streamId, stream.recipient);\n        require(balance >= amount, \"amount exceeds the available balance\");\n\n        if (!compoundingStreamsVars[streamId].isEntity) {\n            withdrawFromStreamInternal(streamId, amount);\n        } else {\n            withdrawFromCompoundingStreamInternal(streamId, amount);\n        }\n        return true;\n    }\n\n    /**\n     * @notice Cancels the stream and transfers the tokens back on a pro rata basis.\n     * @dev Throws if the id does not point to a valid stream.\n     *  Throws if the caller is not the sender or the recipient of the stream.\n     *  Throws if there is a token transfer failure.\n     * @param streamId The id of the stream to cancel.\n     * @return bool true=success, otherwise false.\n     */\n    function cancelStream(uint256 streamId)\n        external\n        nonReentrant\n        streamExists(streamId)\n        onlySenderOrRecipient(streamId)\n        returns (bool)\n    {\n        if (!compoundingStreamsVars[streamId].isEntity) {\n            cancelStreamInternal(streamId);\n        } else {\n            cancelCompoundingStreamInternal(streamId);\n        }\n        return true;\n    }\n\n    /*** Internal Effects & Interactions Functions ***/\n\n    struct WithdrawFromStreamInternalLocalVars {\n        MathError mathErr;\n    }\n\n    /**\n     * @notice Makes the withdrawal to the recipient of the stream.\n     * @dev If the stream balance has been depleted to 0, the stream object is deleted\n     *  to save gas and optimise contract storage.\n     *  Throws if the stream balance calculation has a math error.\n     *  Throws if there is a token transfer failure.\n     */\n    function withdrawFromStreamInternal(uint256 streamId, uint256 amount) internal {\n        Types.Stream memory stream = streams[streamId];\n        WithdrawFromStreamInternalLocalVars memory vars;\n        (vars.mathErr, streams[streamId].remainingBalance) = subUInt(stream.remainingBalance, amount);\n        /**\n         * `subUInt` can only return MathError.INTEGER_UNDERFLOW but we know that `remainingBalance` is at least\n         * as big as `amount`. See the `require` check in `withdrawFromInternal`.\n         */\n        assert(vars.mathErr == MathError.NO_ERROR);\n\n        if (streams[streamId].remainingBalance == 0) delete streams[streamId];\n\n        require(IERC20(stream.tokenAddress).transfer(stream.recipient, amount), \"token transfer failure\");\n        emit WithdrawFromStream(streamId, stream.recipient, amount);\n    }\n\n    struct WithdrawFromCompoundingStreamInternalLocalVars {\n        MathError mathErr;\n        uint256 amountWithoutSenderInterest;\n        uint256 netWithdrawalAmount;\n    }\n\n    /**\n     * @notice Withdraws to the recipient's account and pays the accrued interest to all parties.\n     * @dev If the stream balance has been depleted to 0, the stream object to save gas and optimise\n     *  contract storage.\n     *  Throws if there is a math error.\n     *  Throws if there is a token transfer failure.\n     */\n    function withdrawFromCompoundingStreamInternal(uint256 streamId, uint256 amount) internal {\n        Types.Stream memory stream = streams[streamId];\n        WithdrawFromCompoundingStreamInternalLocalVars memory vars;\n\n        /* Calculate the interest earned by each party for keeping `stream.balance` in the smart contract. */\n        (uint256 senderInterest, uint256 recipientInterest, uint256 sablierInterest) = interestOf(streamId, amount);\n\n        /*\n         * Calculate the net withdrawal amount by subtracting `senderInterest` and `sablierInterest`.\n         * Because the decimal points are lost when we truncate Exponentials, the recipient will implicitly earn\n         * `recipientInterest` plus a tiny-weeny amount of interest, max 2e-8 in cToken denomination.\n         */\n        (vars.mathErr, vars.amountWithoutSenderInterest) = subUInt(amount, senderInterest);\n        require(vars.mathErr == MathError.NO_ERROR, \"amount without sender interest calculation error\");\n        (vars.mathErr, vars.netWithdrawalAmount) = subUInt(vars.amountWithoutSenderInterest, sablierInterest);\n        require(vars.mathErr == MathError.NO_ERROR, \"net withdrawal amount calculation error\");\n\n        /* Subtract `amount` from the remaining balance of the stream. */\n        (vars.mathErr, streams[streamId].remainingBalance) = subUInt(stream.remainingBalance, amount);\n        require(vars.mathErr == MathError.NO_ERROR, \"balance subtraction calculation error\");\n\n        /* Delete the objects from storage if the remaining balance has been depleted to 0. */\n        if (streams[streamId].remainingBalance == 0) {\n            delete streams[streamId];\n            delete compoundingStreamsVars[streamId];\n        }\n\n        /* Add the sablier interest to the earnings for this cToken. */\n        (vars.mathErr, earnings[stream.tokenAddress]) = addUInt(earnings[stream.tokenAddress], sablierInterest);\n        require(vars.mathErr == MathError.NO_ERROR, \"earnings addition calculation error\");\n\n        /* Transfer the tokens to the sender and the recipient. */\n        ICERC20 cToken = ICERC20(stream.tokenAddress);\n        if (senderInterest > 0)\n            require(cToken.transfer(stream.sender, senderInterest), \"sender token transfer failure\");\n        require(cToken.transfer(stream.recipient, vars.netWithdrawalAmount), \"recipient token transfer failure\");\n\n        emit WithdrawFromStream(streamId, stream.recipient, vars.netWithdrawalAmount);\n        emit PayInterest(streamId, senderInterest, recipientInterest, sablierInterest);\n    }\n\n    /**\n     * @notice Cancels the stream and transfers the tokens back on a pro rata basis.\n     * @dev The stream and compounding stream vars objects get deleted to save gas\n     *  and optimise contract storage.\n     *  Throws if there is a token transfer failure.\n     */\n    function cancelStreamInternal(uint256 streamId) internal {\n        Types.Stream memory stream = streams[streamId];\n        uint256 senderBalance = balanceOf(streamId, stream.sender);\n        uint256 recipientBalance = balanceOf(streamId, stream.recipient);\n\n        delete streams[streamId];\n\n        IERC20 token = IERC20(stream.tokenAddress);\n        if (recipientBalance > 0)\n            require(token.transfer(stream.recipient, recipientBalance), \"recipient token transfer failure\");\n        if (senderBalance > 0) require(token.transfer(stream.sender, senderBalance), \"sender token transfer failure\");\n\n        emit CancelStream(streamId, stream.sender, stream.recipient, senderBalance, recipientBalance);\n    }\n\n    struct CancelCompoundingStreamInternal {\n        MathError mathErr;\n        uint256 netSenderBalance;\n        uint256 recipientBalanceWithoutSenderInterest;\n        uint256 netRecipientBalance;\n    }\n\n    /**\n     * @notice Cancels the stream, transfers the tokens back on a pro rata basis and pays the accrued\n     * interest to all parties.\n     * @dev Importantly, the money that has not been streamed yet is not considered chargeable.\n     *  All the interest generated by that underlying will be returned to the sender.\n     *  Throws if there is a math error.\n     *  Throws if there is a token transfer failure.\n     */\n    function cancelCompoundingStreamInternal(uint256 streamId) internal {\n        Types.Stream memory stream = streams[streamId];\n        CancelCompoundingStreamInternal memory vars;\n\n        /*\n         * The sender gets back all the money that has not been streamed so far. By that, we mean both\n         * the underlying amount and the interest generated by it.\n         */\n        uint256 senderBalance = balanceOf(streamId, stream.sender);\n        uint256 recipientBalance = balanceOf(streamId, stream.recipient);\n\n        /* Calculate the interest earned by each party for keeping `recipientBalance` in the smart contract. */\n        (uint256 senderInterest, uint256 recipientInterest, uint256 sablierInterest) = interestOf(\n            streamId,\n            recipientBalance\n        );\n\n        /*\n         * We add `senderInterest` to `senderBalance` to calculate the net balance for the sender.\n         * After this, the rest of the function is similar to `withdrawFromCompoundingStreamInternal`, except\n         * we add the sender's share of the interest generated by `recipientBalance` to `senderBalance`.\n         */\n        (vars.mathErr, vars.netSenderBalance) = addUInt(senderBalance, senderInterest);\n        require(vars.mathErr == MathError.NO_ERROR, \"net sender balance calculation error\");\n\n        /*\n         * Calculate the net withdrawal amount by subtracting `senderInterest` and `sablierInterest`.\n         * Because the decimal points are lost when we truncate Exponentials, the recipient will implicitly earn\n         * `recipientInterest` plus a tiny-weeny amount of interest, max 2e-8 in cToken denomination.\n         */\n        (vars.mathErr, vars.recipientBalanceWithoutSenderInterest) = subUInt(recipientBalance, senderInterest);\n        require(vars.mathErr == MathError.NO_ERROR, \"recipient balance without sender interest calculation error\");\n        (vars.mathErr, vars.netRecipientBalance) = subUInt(vars.recipientBalanceWithoutSenderInterest, sablierInterest);\n        require(vars.mathErr == MathError.NO_ERROR, \"net recipient balance calculation error\");\n\n        /* Add the sablier interest to the earnings attributed to this cToken. */\n        (vars.mathErr, earnings[stream.tokenAddress]) = addUInt(earnings[stream.tokenAddress], sablierInterest);\n        require(vars.mathErr == MathError.NO_ERROR, \"earnings addition calculation error\");\n\n        /* Delete the objects from storage. */\n        delete streams[streamId];\n        delete compoundingStreamsVars[streamId];\n\n        /* Transfer the tokens to the sender and the recipient. */\n        IERC20 token = IERC20(stream.tokenAddress);\n        if (vars.netSenderBalance > 0)\n            require(token.transfer(stream.sender, vars.netSenderBalance), \"sender token transfer failure\");\n        if (vars.netRecipientBalance > 0)\n            require(token.transfer(stream.recipient, vars.netRecipientBalance), \"recipient token transfer failure\");\n\n        emit CancelStream(streamId, stream.sender, stream.recipient, vars.netSenderBalance, vars.netRecipientBalance);\n        emit PayInterest(streamId, senderInterest, recipientInterest, sablierInterest);\n    }\n}\n",
  "sourcePath": "/home/michael/WebstormProjects/sablier/packages/protocol/contracts/Sablier.sol",
  "compiler": {
    "name": "solc",
    "version": "0.5.11+commit.c082d0b4.Emscripten.clang"
  },
  "schemaVersion": "3.0.20",
  "updatedAt": "2020-01-10T11:33:18.751Z",
  "networkType": "ethereum",
  "devdoc": {
    "author": "Sablier",
    "methods": {
      "balanceOf(uint256,address)": {
        "details": "Throws if the id does not point to a valid stream.",
        "params": {
          "streamId": "The id of the stream for which to query the balance.",
          "who": "The address for which to query the balance."
        },
        "return": "The total funds allocated to `who` as uint256."
      },
      "cancelStream(uint256)": {
        "details": "Throws if the id does not point to a valid stream. Throws if the caller is not the sender or the recipient of the stream. Throws if there is a token transfer failure.",
        "params": {
          "streamId": "The id of the stream to cancel."
        },
        "return": "bool true=success, otherwise false."
      },
      "createCompoundingStream(address,uint256,address,uint256,uint256,uint256,uint256)": {
        "details": "Inherits all security checks from `createStream`. Throws if the cToken is not whitelisted. Throws if the sender share percentage and the recipient share percentage do not sum up to 100. Throws if the the sender share mantissa calculation has a math error. Throws if the the recipient share mantissa calculation has a math error.",
        "params": {
          "deposit": "The amount of money to be streamed.",
          "recipient": "The address towards which the money is streamed.",
          "recipientSharePercentage": "The recipient's share of the interest, as a percentage.",
          "senderSharePercentage": "The sender's share of the interest, as a percentage.",
          "startTime": "The unix timestamp for when the stream starts.",
          "stopTime": "The unix timestamp for when the stream stops.",
          "tokenAddress": "The ERC20 token to use as streaming currency."
        },
        "return": "The uint256 id of the newly created compounding stream."
      },
      "createStream(address,uint256,address,uint256,uint256)": {
        "details": "Throws if paused. Throws if the recipient is the zero address, the contract itself or the caller. Throws if the deposit is 0. Throws if the start time is before `block.timestamp`. Throws if the stop time is before the start time. Throws if the duration calculation has a math error. Throws if the deposit is smaller than the duration. Throws if the deposit is not a multiple of the duration. Throws if the rate calculation has a math error. Throws if the next stream id calculation has a math error. Throws if the contract is not allowed to transfer enough tokens. Throws if there is a token transfer failure.",
        "params": {
          "deposit": "The amount of money to be streamed.",
          "recipient": "The address towards which the money is streamed.",
          "startTime": "The unix timestamp for when the stream starts.",
          "stopTime": "The unix timestamp for when the stream stops.",
          "tokenAddress": "The ERC20 token to use as streaming currency."
        },
        "return": "The uint256 id of the newly created stream."
      },
      "deltaOf(uint256)": {
        "details": "Throws if the id does not point to a valid stream.",
        "params": {
          "streamId": "The id of the stream for which to query the delta."
        },
        "return": "The time delta in seconds."
      },
      "getCompoundingStream(uint256)": {
        "details": "Throws if the id does not point to a valid compounding stream.",
        "params": {
          "streamId": "The id of the compounding stream to query."
        },
        "return": "The compounding stream object."
      },
      "getEarnings(address)": {
        "params": {
          "tokenAddress": "The address of the token to get the earnings for."
        },
        "return": "The amount of interest as uint256."
      },
      "getStream(uint256)": {
        "details": "Throws if the id does not point to a valid stream.",
        "params": {
          "streamId": "The id of the stream to query."
        },
        "return": "The stream object."
      },
      "initialize(address)": {
        "details": "Initializes the contract in unpaused state. Assigns the Pauser role to the deployer."
      },
      "interestOf(uint256,uint256)": {
        "details": "Throws if there is a math error. We do not assert the calculations which involve the current exchange rate, because we can't know what value we'll get back from the cToken contract.",
        "params": {
          "amount": "The amount of money with respect to which to calculate the interest.",
          "streamId": "The id of the compounding stream for which to calculate the interest."
        },
        "return": "The interest accrued by the sender, the recipient and sablier, respectively, as uint256s."
      },
      "isCompoundingStream(uint256)": {
        "params": {
          "streamId": "The id of the compounding stream to check."
        },
        "return": "bool true=if it is a compounding stream, otherwise false."
      },
      "isOwner()": {
        "return": "true if `msg.sender` is the owner of the contract."
      },
      "owner()": {
        "return": "the address of the owner."
      },
      "pause()": {
        "details": "Called by a pauser to pause, triggers stopped state."
      },
      "paused()": {
        "details": "Returns true if the contract is paused, and false otherwise."
      },
      "takeEarnings(address,uint256)": {
        "details": "Throws if `amount` exceeds the available balance.",
        "params": {
          "amount": "The amount of tokens to withdraw.",
          "tokenAddress": "The address of the token to withdraw earnings for."
        }
      },
      "transferOwnership(address)": {
        "details": "Allows the current owner to transfer control of the contract to a newOwner.",
        "params": {
          "newOwner": "The address to transfer ownership to."
        }
      },
      "unpause()": {
        "details": "Called by a pauser to unpause, returns to normal state."
      },
      "updateFee(uint256)": {
        "details": "Throws if the caller is not the owner of the contract. Throws if `feePercentage` is not lower or equal to 100.",
        "params": {
          "feePercentage": "The new fee as a percentage."
        }
      },
      "withdrawFromStream(uint256,uint256)": {
        "details": "Throws if the id does not point to a valid stream. Throws if the caller is not the sender or the recipient of the stream. Throws if the amount exceeds the available balance. Throws if there is a token transfer failure.",
        "params": {
          "amount": "The amount of tokens to withdraw.",
          "streamId": "The id of the stream to withdraw tokens from."
        },
        "return": "bool true=success, otherwise false."
      }
    },
    "title": "Sablier's Money Streaming"
  },
  "userdoc": {
    "methods": {
      "balanceOf(uint256,address)": {
        "notice": "Returns the available funds for the given stream id and address."
      },
      "cancelStream(uint256)": {
        "notice": "Cancels the stream and transfers the tokens back on a pro rata basis."
      },
      "constructor": "* Contract Logic Starts Here ",
      "createCompoundingStream(address,uint256,address,uint256,uint256,uint256,uint256)": {
        "notice": "Creates a new compounding stream funded by `msg.sender` and paid towards `recipient`."
      },
      "createStream(address,uint256,address,uint256,uint256)": {
        "notice": "Creates a new stream funded by `msg.sender` and paid towards `recipient`."
      },
      "deltaOf(uint256)": {
        "notice": "Returns either the delta in seconds between `block.timestamp` and `startTime` or between `stopTime` and `startTime, whichever is smaller. If `block.timestamp` is before `startTime`, it returns 0."
      },
      "getCompoundingStream(uint256)": {
        "notice": "Returns the compounding stream object with all its properties."
      },
      "getEarnings(address)": {
        "notice": "Returns the amount of interest that has been accrued for the given token address."
      },
      "getStream(uint256)": {
        "notice": "Returns the compounding stream with all its properties."
      },
      "interestOf(uint256,uint256)": {
        "notice": "Computes the interest accrued while the money has been streamed. Returns (0, 0, 0) if the stream is either not a compounding stream or it does not exist."
      },
      "isCompoundingStream(uint256)": {
        "notice": "Checks if the provided id points to a valid compounding stream."
      },
      "takeEarnings(address,uint256)": {
        "notice": "Withdraws the earnings for the given token address."
      },
      "updateFee(uint256)": {
        "notice": "Updates the Sablier fee."
      },
      "withdrawFromStream(uint256,uint256)": {
        "notice": "Withdraws from the contract to the recipient's account."
      }
    }
  }
}