{
  "contractName": "SealedSablier",
  "abi": [
    {
      "constant": true,
      "inputs": [],
      "name": "Sablier",
      "outputs": [
        {
          "internalType": "address",
          "name": "",
          "type": "address"
        }
      ],
      "payable": false,
      "stateMutability": "view",
      "type": "function"
    },
    {
      "inputs": [
        {
          "internalType": "address",
          "name": "_Sablier",
          "type": "address"
        }
      ],
      "payable": false,
      "stateMutability": "nonpayable",
      "type": "constructor"
    },
    {
      "constant": false,
      "inputs": [
        {
          "internalType": "address",
          "name": "recipient",
          "type": "address"
        },
        {
          "internalType": "uint256",
          "name": "deposit",
          "type": "uint256"
        },
        {
          "internalType": "address",
          "name": "tokenAddress",
          "type": "address"
        },
        {
          "internalType": "uint256",
          "name": "startTime",
          "type": "uint256"
        },
        {
          "internalType": "uint256",
          "name": "stopTime",
          "type": "uint256"
        }
      ],
      "name": "createStream",
      "outputs": [
        {
          "internalType": "uint256",
          "name": "streamId",
          "type": "uint256"
        }
      ],
      "payable": false,
      "stateMutability": "nonpayable",
      "type": "function"
    }
  ],
  "bytecode": "0x608060405234801561001057600080fd5b506040516106323803806106328339818101604052602081101561003357600080fd5b8101908080519060200190929190505050806000806101000a81548173ffffffffffffffffffffffffffffffffffffffff021916908373ffffffffffffffffffffffffffffffffffffffff1602179055505061059e806100946000396000f3fe608060405234801561001057600080fd5b50600436106100365760003560e01c8063cc1b4bf61461003b578063d1ecf20c146100d1575b600080fd5b6100bb600480360360a081101561005157600080fd5b81019080803573ffffffffffffffffffffffffffffffffffffffff16906020019092919080359060200190929190803573ffffffffffffffffffffffffffffffffffffffff169060200190929190803590602001909291908035906020019092919050505061011b565b6040518082815260200191505060405180910390f35b6100d96104d2565b604051808273ffffffffffffffffffffffffffffffffffffffff1673ffffffffffffffffffffffffffffffffffffffff16815260200191505060405180910390f35b60008373ffffffffffffffffffffffffffffffffffffffff166323b872dd3330886040518463ffffffff1660e01b8152600401808473ffffffffffffffffffffffffffffffffffffffff1673ffffffffffffffffffffffffffffffffffffffff1681526020018373ffffffffffffffffffffffffffffffffffffffff1673ffffffffffffffffffffffffffffffffffffffff1681526020018281526020019350505050602060405180830381600087803b1580156101d857600080fd5b505af11580156101ec573d6000803e3d6000fd5b505050506040513d602081101561020257600080fd5b8101908080519060200190929190505050610268576040517f08c379a00000000000000000000000000000000000000000000000000000000081526004018080602001828103825260338152602001806105376033913960400191505060405180910390fd5b8373ffffffffffffffffffffffffffffffffffffffff1663095ea7b36000809054906101000a900473ffffffffffffffffffffffffffffffffffffffff16876040518363ffffffff1660e01b8152600401808373ffffffffffffffffffffffffffffffffffffffff1673ffffffffffffffffffffffffffffffffffffffff16815260200182815260200192505050602060405180830381600087803b15801561031057600080fd5b505af1158015610324573d6000803e3d6000fd5b505050506040513d602081101561033a57600080fd5b81019080805190602001909291905050506103a0576040517f08c379a000000000000000000000000000000000000000000000000000000000815260040180806020018281038252603f8152602001806104f8603f913960400191505060405180910390fd5b6000809054906101000a900473ffffffffffffffffffffffffffffffffffffffff1673ffffffffffffffffffffffffffffffffffffffff1663cc1b4bf687878787876040518663ffffffff1660e01b8152600401808673ffffffffffffffffffffffffffffffffffffffff1673ffffffffffffffffffffffffffffffffffffffff1681526020018581526020018473ffffffffffffffffffffffffffffffffffffffff1673ffffffffffffffffffffffffffffffffffffffff16815260200183815260200182815260200195505050505050602060405180830381600087803b15801561048c57600080fd5b505af11580156104a0573d6000803e3d6000fd5b505050506040513d60208110156104b657600080fd5b8101908080519060200190929190505050905095945050505050565b6000809054906101000a900473ffffffffffffffffffffffffffffffffffffffff168156fe6661696c656420746f20617070726f766520746f6b656e732066726f6d205365616c65645361626c69657220636f6e747261637420746f205361626c6965726661696c656420746f207472616e7366657220746f6b656e7320746f205365616c65645361626c69657220636f6e7472616374a265627a7a723158203d0fc72beb5f1c14508495d4370b637bdd908f2c6ea2b84c38a756df58af890e64736f6c634300050b0032",
  "source": "pragma solidity 0.5.11;\n\nimport \"@openzeppelin/contracts/token/ERC20/IERC20.sol\";\nimport \"./interfaces/IERC1620.sol\";\n\n/**\n    Workflow:\n    1. User approves SealedSablier contract to spend desired amount of tokens\n    2. User calls SealedSablier doIt() function. This function does in one transaction:\n        a) transfer amount of tokens approved previously to itself\n        b) approve Sablier contract to spend tokens that are now owned by SealedSablier contract\n        b) calls createStream() on Sablier contract. Sablier contract does:\n            a) create stream where SealedSablier contract is the sender (msg.sender from Sablier POV)\n            b) transfer previously approved tokens from SealedSablier contract to Sablier\n\n     Result:\n       - A new stream for recipient is created, with the SealedSablier contract as sender\n       - Since the user is not the Sender he can not cancel or modify the stream anymore\n\n     Benefits:\n       - No risk of losing funds in temporary wallet due to browser/system crash or similar\n       - No need to have the user transfer both ETH (to pay gas) and Token into temporary wallet to create\n         a stream\n\n     Risk:\n       - Sablier streams can be cancelled both by sender or recipient. When a stream is cancelled, remaining funds\n         will be transferred back to the sender. In this scenario this means the funds will be sent back to the\n         SealedSablier contract, where they will be locked forever.\n         TODO: Think about possible fixes (maybe ERC20-approve original sender to transfer back canceled amounts?)\n*/\n\ncontract SealedSablier {\n\n    address public Sablier;\n\n    constructor(address _Sablier) public {\n        Sablier = _Sablier;\n    }\n\n    /**\n     * @notice Creates a stream on Sablier on behalf of the real user.\n     * @dev Throws if the contract is not allowed to transfer enough tokens from msg.sender.\n     *  Throws if approval of tokens for Sablier contract fails\n     *  See function \"createStream\" in Sablier.sol for more details\n     * @param recipient The address towards which the money is streamed.\n     * @param deposit The amount of money to be streamed.\n     * @param tokenAddress The ERC20 token to use as streaming currency.\n     * @param startTime The unix timestamp for when the stream starts.\n     * @param stopTime The unix timestamp for when the stream stops.\n     * @return The uint256 id of the newly created stream.\n     */\n    function createStream(address recipient, uint256 deposit, address tokenAddress, uint256 startTime, uint256 stopTime)\n        public\n        returns (uint256 streamId)\n    {\n        // Note - Not doing any input validation here, as this is done anyway in the Sablier contract\n\n        // transfer tokens to be deposited to self. Will fail if not approved by msg.sender.\n        require(\n            IERC20(tokenAddress).transferFrom(msg.sender, address(this), deposit),\n            \"failed to transfer tokens to SealedSablier contract\"\n        );\n\n        // approve Sablier to spend the tokens I just acquired\n        require(IERC20(tokenAddress).approve(Sablier, deposit),\n            \"failed to approve tokens from SealedSablier contract to Sablier\"\n        );\n\n        // create stream on Sablier contract and return the streamID\n        streamId = IERC1620(Sablier).createStream(recipient, deposit, tokenAddress, startTime, stopTime);\n    }\n}\n",
  "sourcePath": "/home/michael/WebstormProjects/web3Inheritance/contracts/SealedSablier.sol",
  "compiler": {
    "name": "solc",
    "version": "0.5.11+commit.c082d0b4.Emscripten.clang"
  },
  "schemaVersion": "3.0.20",
  "updatedAt": "2020-01-13T10:04:59.145Z",
  "networkType": "ethereum",
  "devdoc": {
    "methods": {
      "createStream(address,uint256,address,uint256,uint256)": {
        "details": "Throws if the contract is not allowed to transfer enough tokens from msg.sender. Throws if approval of tokens for Sablier contract fails See function \"createStream\" in Sablier.sol for more details",
        "params": {
          "deposit": "The amount of money to be streamed.",
          "recipient": "The address towards which the money is streamed.",
          "startTime": "The unix timestamp for when the stream starts.",
          "stopTime": "The unix timestamp for when the stream stops.",
          "tokenAddress": "The ERC20 token to use as streaming currency."
        },
        "return": "The uint256 id of the newly created stream."
      }
    }
  },
  "userdoc": {
    "methods": {
      "createStream(address,uint256,address,uint256,uint256)": {
        "notice": "Creates a stream on Sablier on behalf of the real user."
      }
    },
    "notice": "Workflow: 1. User approves SealedSablier contract to spend desired amount of tokens 2. User calls SealedSablier doIt() function. This function does in one transaction: a) transfer amount of tokens approved previously to itself b) approve Sablier contract to spend tokens that are now owned by SealedSablier contract b) calls createStream() on Sablier contract. Sablier contract does: a) create stream where SealedSablier contract is the sender (msg.sender from Sablier POV) b) transfer previously approved tokens from SealedSablier contract to Sablier Result: - A new stream for recipient is created, with the SealedSablier contract as sender - Since the user is not the Sender he can not cancel or modify the stream anymore Benefits: - No risk of losing funds in temporary wallet due to browser/system crash or similar - No need to have the user transfer both ETH (to pay gas) and Token into temporary wallet to create a stream Risk: - Sablier streams can be cancelled both by sender or recipient. When a stream is cancelled, remaining funds will be transferred back to the sender. In this scenario this means the funds will be sent back to the SealedSablier contract, where they will be locked forever. TODO: Think about possible fixes (maybe ERC20-approve original sender to transfer back canceled amounts?)"
  }
}