{
  "contractName": "SealedSablier",
  "abi": [
    {
      "constant": true,
      "inputs": [],
      "name": "Sablier",
      "outputs": [
        {
          "internalType": "address",
          "name": "",
          "type": "address"
        }
      ],
      "payable": false,
      "stateMutability": "view",
      "type": "function"
    },
    {
      "inputs": [
        {
          "internalType": "address",
          "name": "_Sablier",
          "type": "address"
        }
      ],
      "payable": false,
      "stateMutability": "nonpayable",
      "type": "constructor"
    },
    {
      "constant": false,
      "inputs": [
        {
          "internalType": "address",
          "name": "recipient",
          "type": "address"
        },
        {
          "internalType": "uint256",
          "name": "deposit",
          "type": "uint256"
        },
        {
          "internalType": "address",
          "name": "tokenAddress",
          "type": "address"
        },
        {
          "internalType": "uint256",
          "name": "startTime",
          "type": "uint256"
        },
        {
          "internalType": "uint256",
          "name": "stopTime",
          "type": "uint256"
        }
      ],
      "name": "createStream",
      "outputs": [
        {
          "internalType": "uint256",
          "name": "streamId",
          "type": "uint256"
        }
      ],
      "payable": false,
      "stateMutability": "nonpayable",
      "type": "function"
    }
  ],
  "bytecode": "0x608060405234801561001057600080fd5b5060405161078a38038061078a8339818101604052602081101561003357600080fd5b8101908080519060200190929190505050806000806101000a81548173ffffffffffffffffffffffffffffffffffffffff021916908373ffffffffffffffffffffffffffffffffffffffff160217905550506106f6806100946000396000f3fe608060405234801561001057600080fd5b50600436106100365760003560e01c8063cc1b4bf61461003b578063d1ecf20c146100d1575b600080fd5b6100bb600480360360a081101561005157600080fd5b81019080803573ffffffffffffffffffffffffffffffffffffffff16906020019092919080359060200190929190803573ffffffffffffffffffffffffffffffffffffffff169060200190929190803590602001909291908035906020019092919050505061011b565b6040518082815260200191505060405180910390f35b6100d96105eb565b604051808273ffffffffffffffffffffffffffffffffffffffff1673ffffffffffffffffffffffffffffffffffffffff16815260200191505060405180910390f35b60008373ffffffffffffffffffffffffffffffffffffffff166323b872dd3330886040518463ffffffff1660e01b8152600401808473ffffffffffffffffffffffffffffffffffffffff1673ffffffffffffffffffffffffffffffffffffffff1681526020018373ffffffffffffffffffffffffffffffffffffffff1673ffffffffffffffffffffffffffffffffffffffff1681526020018281526020019350505050602060405180830381600087803b1580156101d857600080fd5b505af11580156101ec573d6000803e3d6000fd5b505050506040513d602081101561020257600080fd5b8101908080519060200190929190505050610268576040517f08c379a000000000000000000000000000000000000000000000000000000000815260040180806020018281038252603381526020018061068f6033913960400191505060405180910390fd5b8373ffffffffffffffffffffffffffffffffffffffff1663095ea7b36000809054906101000a900473ffffffffffffffffffffffffffffffffffffffff16876040518363ffffffff1660e01b8152600401808373ffffffffffffffffffffffffffffffffffffffff1673ffffffffffffffffffffffffffffffffffffffff16815260200182815260200192505050602060405180830381600087803b15801561031057600080fd5b505af1158015610324573d6000803e3d6000fd5b505050506040513d602081101561033a57600080fd5b81019080805190602001909291905050506103a0576040517f08c379a000000000000000000000000000000000000000000000000000000000815260040180806020018281038252603f815260200180610611603f913960400191505060405180910390fd5b8373ffffffffffffffffffffffffffffffffffffffff1663095ea7b3336000196040518363ffffffff1660e01b8152600401808373ffffffffffffffffffffffffffffffffffffffff1673ffffffffffffffffffffffffffffffffffffffff16815260200182815260200192505050602060405180830381600087803b15801561042957600080fd5b505af115801561043d573d6000803e3d6000fd5b505050506040513d602081101561045357600080fd5b81019080805190602001909291905050506104b9576040517f08c379a000000000000000000000000000000000000000000000000000000000815260040180806020018281038252603f815260200180610650603f913960400191505060405180910390fd5b6000809054906101000a900473ffffffffffffffffffffffffffffffffffffffff1673ffffffffffffffffffffffffffffffffffffffff1663cc1b4bf687878787876040518663ffffffff1660e01b8152600401808673ffffffffffffffffffffffffffffffffffffffff1673ffffffffffffffffffffffffffffffffffffffff1681526020018581526020018473ffffffffffffffffffffffffffffffffffffffff1673ffffffffffffffffffffffffffffffffffffffff16815260200183815260200182815260200195505050505050602060405180830381600087803b1580156105a557600080fd5b505af11580156105b9573d6000803e3d6000fd5b505050506040513d60208110156105cf57600080fd5b8101908080519060200190929190505050905095945050505050565b6000809054906101000a900473ffffffffffffffffffffffffffffffffffffffff168156fe6661696c656420746f20617070726f766520746f6b656e732066726f6d205365616c65645361626c69657220636f6e747261637420746f205361626c6965726661696c656420746f20617070726f766520746f6b656e732066726f6d205365616c65645361626c69657220636f6e747261637420746f2043726561746f726661696c656420746f207472616e7366657220746f6b656e7320746f205365616c65645361626c69657220636f6e7472616374a265627a7a723158201c419b371e65a35af996a7a76bf2d851af173f418a6e6ff66d045c126a7d158b64736f6c634300050b0032",
  "source": "pragma solidity 0.5.11;\n\nimport \"@openzeppelin/contracts/token/ERC20/IERC20.sol\";\nimport \"./interfaces/IERC1620.sol\";\n\n/**\n    Workflow:\n    1. User approves SealedSablier contract to spend desired amount of tokens\n    2. User calls SealedSablier createStream() function. This function does in one transaction:\n        a) transfer amount of tokens approved previously to itself\n        b) approve Sablier contract to spend tokens that are now owned by SealedSablier contract\n        c) Also approve msg.sender to spend tokens (See below why this is necessary)\n        d) calls createStream() on Sablier contract. Sablier contract does:\n            a) create stream where SealedSablier contract is the sender\n            b) transfer previously approved tokens from SealedSablier contract to Sablier\n\n     Result:\n       - A new stream for recipient is created, with the SealedSablier contract as sender\n       - Since the user is not the Sender he can not cancel or modify the stream anymore\n\n     Benefits:\n       - No risk of losing funds in temporary wallet due to browser/system crash or similar\n       - No need to have the user transfer both ETH (to pay gas) and Token into temporary wallet to create\n         a stream\n\n     Risk:\n       - Sablier streams can be cancelled both by sender or recipient. When a stream is cancelled,\n         remaining funds will be transferred back to the sender.\n         In this scenario the creator can not cancel the stream, but the receiver could still do it.\n         This means the funds will be sent back to the SealedSablier contract, where they will be\n         locked forever.\n         To enable the stream creator to salvage these returned funds I'm approving the sender to spend\n         any funds that end up in this contract - See \"Escape hatch\" notice below.\n*/\n\ncontract SealedSablier {\n\n    address public Sablier;\n\n    constructor(address _Sablier) public {\n        Sablier = _Sablier;\n    }\n\n    /**\n     * @notice Creates a stream on Sablier on behalf of the real user.\n     * @dev Throws if the contract is not allowed to transfer enough tokens from msg.sender.\n     *  Throws if approval of tokens for Sablier contract fails\n     *  See function \"createStream\" in Sablier.sol for more details\n     * @param recipient The address towards which the money is streamed.\n     * @param deposit The amount of money to be streamed.\n     * @param tokenAddress The ERC20 token to use as streaming currency.\n     * @param startTime The unix timestamp for when the stream starts.\n     * @param stopTime The unix timestamp for when the stream stops.\n     * @return The uint256 id of the newly created stream.\n     */\n    function createStream(address recipient, uint256 deposit, address tokenAddress, uint256 startTime, uint256 stopTime)\n        public\n        returns (uint256 streamId)\n    {\n        // Note - Not doing any input validation here, as this is done anyway in the Sablier contract\n\n        // transfer tokens to be deposited to self. Will fail if not approved by msg.sender.\n        require(\n            IERC20(tokenAddress).transferFrom(msg.sender, address(this), deposit),\n            \"failed to transfer tokens to SealedSablier contract\"\n        );\n\n        // approve Sablier to spend the tokens I just acquired\n        require(IERC20(tokenAddress).approve(Sablier, deposit),\n            \"failed to approve tokens from SealedSablier contract to Sablier\"\n        );\n\n        // \"Escape hatch\" - We need to prevent locking funds forever in case recipient cancels stream and funds\n        // end up in this contract:\n        // Approve sender to transfer tokens owned by contract. Setting approval to MAX_UINT (~uint256(0)), as\n        // in worst case there might be multiple streams cancelled, so we don't know the total amount that might\n        // need rescue! Could instead use \"increaseApproval\" if it would be supported by all ERC20 contracts...\n        require(IERC20(tokenAddress).approve(msg.sender, ~uint256(0)),\n            \"failed to approve tokens from SealedSablier contract to Creator\"\n        );\n\n        // create stream on Sablier contract and return the streamID\n        streamId = IERC1620(Sablier).createStream(recipient, deposit, tokenAddress, startTime, stopTime);\n    }\n}\n",
  "sourcePath": "/home/michael/WebstormProjects/web3Inheritance/contracts/SealedSablier.sol",
  "compiler": {
    "name": "solc",
    "version": "0.5.11+commit.c082d0b4.Emscripten.clang"
  },
  "schemaVersion": "3.0.20",
  "updatedAt": "2020-01-20T12:54:39.413Z",
  "networkType": "ethereum",
  "devdoc": {
    "methods": {
      "createStream(address,uint256,address,uint256,uint256)": {
        "details": "Throws if the contract is not allowed to transfer enough tokens from msg.sender. Throws if approval of tokens for Sablier contract fails See function \"createStream\" in Sablier.sol for more details",
        "params": {
          "deposit": "The amount of money to be streamed.",
          "recipient": "The address towards which the money is streamed.",
          "startTime": "The unix timestamp for when the stream starts.",
          "stopTime": "The unix timestamp for when the stream stops.",
          "tokenAddress": "The ERC20 token to use as streaming currency."
        },
        "return": "The uint256 id of the newly created stream."
      }
    }
  },
  "userdoc": {
    "methods": {
      "createStream(address,uint256,address,uint256,uint256)": {
        "notice": "Creates a stream on Sablier on behalf of the real user."
      }
    },
    "notice": "Workflow: 1. User approves SealedSablier contract to spend desired amount of tokens 2. User calls SealedSablier createStream() function. This function does in one transaction: a) transfer amount of tokens approved previously to itself b) approve Sablier contract to spend tokens that are now owned by SealedSablier contract c) Also approve msg.sender to spend tokens (See below why this is necessary) d) calls createStream() on Sablier contract. Sablier contract does: a) create stream where SealedSablier contract is the sender b) transfer previously approved tokens from SealedSablier contract to Sablier Result: - A new stream for recipient is created, with the SealedSablier contract as sender - Since the user is not the Sender he can not cancel or modify the stream anymore Benefits: - No risk of losing funds in temporary wallet due to browser/system crash or similar - No need to have the user transfer both ETH (to pay gas) and Token into temporary wallet to create a stream Risk: - Sablier streams can be cancelled both by sender or recipient. When a stream is cancelled, remaining funds will be transferred back to the sender. In this scenario the creator can not cancel the stream, but the receiver could still do it. This means the funds will be sent back to the SealedSablier contract, where they will be locked forever. To enable the stream creator to salvage these returned funds I'm approving the sender to spend any funds that end up in this contract - See \"Escape hatch\" notice below."
  }
}